{"abi":[{"type":"constructor","inputs":[{"name":"_ditto","type":"address","internalType":"contract IVotes"},{"name":"_timelock","type":"address","internalType":"contract TimelockController"}],"stateMutability":"nonpayable"},{"type":"receive","stateMutability":"payable"},{"type":"function","name":"BALLOT_TYPEHASH","inputs":[],"outputs":[{"name":"","type":"bytes32","internalType":"bytes32"}],"stateMutability":"view"},{"type":"function","name":"CLOCK_MODE","inputs":[],"outputs":[{"name":"","type":"string","internalType":"string"}],"stateMutability":"view"},{"type":"function","name":"COUNTING_MODE","inputs":[],"outputs":[{"name":"","type":"string","internalType":"string"}],"stateMutability":"pure"},{"type":"function","name":"EXTENDED_BALLOT_TYPEHASH","inputs":[],"outputs":[{"name":"","type":"bytes32","internalType":"bytes32"}],"stateMutability":"view"},{"type":"function","name":"cancel","inputs":[{"name":"targets","type":"address[]","internalType":"address[]"},{"name":"values","type":"uint256[]","internalType":"uint256[]"},{"name":"calldatas","type":"bytes[]","internalType":"bytes[]"},{"name":"descriptionHash","type":"bytes32","internalType":"bytes32"}],"outputs":[{"name":"","type":"uint256","internalType":"uint256"}],"stateMutability":"nonpayable"},{"type":"function","name":"castVote","inputs":[{"name":"proposalId","type":"uint256","internalType":"uint256"},{"name":"support","type":"uint8","internalType":"uint8"}],"outputs":[{"name":"","type":"uint256","internalType":"uint256"}],"stateMutability":"nonpayable"},{"type":"function","name":"castVoteBySig","inputs":[{"name":"proposalId","type":"uint256","internalType":"uint256"},{"name":"support","type":"uint8","internalType":"uint8"},{"name":"voter","type":"address","internalType":"address"},{"name":"signature","type":"bytes","internalType":"bytes"}],"outputs":[{"name":"","type":"uint256","internalType":"uint256"}],"stateMutability":"nonpayable"},{"type":"function","name":"castVoteWithReason","inputs":[{"name":"proposalId","type":"uint256","internalType":"uint256"},{"name":"support","type":"uint8","internalType":"uint8"},{"name":"reason","type":"string","internalType":"string"}],"outputs":[{"name":"","type":"uint256","internalType":"uint256"}],"stateMutability":"nonpayable"},{"type":"function","name":"castVoteWithReasonAndParams","inputs":[{"name":"proposalId","type":"uint256","internalType":"uint256"},{"name":"support","type":"uint8","internalType":"uint8"},{"name":"reason","type":"string","internalType":"string"},{"name":"params","type":"bytes","internalType":"bytes"}],"outputs":[{"name":"","type":"uint256","internalType":"uint256"}],"stateMutability":"nonpayable"},{"type":"function","name":"castVoteWithReasonAndParamsBySig","inputs":[{"name":"proposalId","type":"uint256","internalType":"uint256"},{"name":"support","type":"uint8","internalType":"uint8"},{"name":"voter","type":"address","internalType":"address"},{"name":"reason","type":"string","internalType":"string"},{"name":"params","type":"bytes","internalType":"bytes"},{"name":"signature","type":"bytes","internalType":"bytes"}],"outputs":[{"name":"","type":"uint256","internalType":"uint256"}],"stateMutability":"nonpayable"},{"type":"function","name":"clock","inputs":[],"outputs":[{"name":"","type":"uint48","internalType":"uint48"}],"stateMutability":"view"},{"type":"function","name":"eip712Domain","inputs":[],"outputs":[{"name":"fields","type":"bytes1","internalType":"bytes1"},{"name":"name","type":"string","internalType":"string"},{"name":"version","type":"string","internalType":"string"},{"name":"chainId","type":"uint256","internalType":"uint256"},{"name":"verifyingContract","type":"address","internalType":"address"},{"name":"salt","type":"bytes32","internalType":"bytes32"},{"name":"extensions","type":"uint256[]","internalType":"uint256[]"}],"stateMutability":"view"},{"type":"function","name":"execute","inputs":[{"name":"targets","type":"address[]","internalType":"address[]"},{"name":"values","type":"uint256[]","internalType":"uint256[]"},{"name":"calldatas","type":"bytes[]","internalType":"bytes[]"},{"name":"descriptionHash","type":"bytes32","internalType":"bytes32"}],"outputs":[{"name":"","type":"uint256","internalType":"uint256"}],"stateMutability":"payable"},{"type":"function","name":"getVotes","inputs":[{"name":"account","type":"address","internalType":"address"},{"name":"timepoint","type":"uint256","internalType":"uint256"}],"outputs":[{"name":"","type":"uint256","internalType":"uint256"}],"stateMutability":"view"},{"type":"function","name":"getVotesWithParams","inputs":[{"name":"account","type":"address","internalType":"address"},{"name":"timepoint","type":"uint256","internalType":"uint256"},{"name":"params","type":"bytes","internalType":"bytes"}],"outputs":[{"name":"","type":"uint256","internalType":"uint256"}],"stateMutability":"view"},{"type":"function","name":"hasVoted","inputs":[{"name":"proposalId","type":"uint256","internalType":"uint256"},{"name":"account","type":"address","internalType":"address"}],"outputs":[{"name":"","type":"bool","internalType":"bool"}],"stateMutability":"view"},{"type":"function","name":"hashProposal","inputs":[{"name":"targets","type":"address[]","internalType":"address[]"},{"name":"values","type":"uint256[]","internalType":"uint256[]"},{"name":"calldatas","type":"bytes[]","internalType":"bytes[]"},{"name":"descriptionHash","type":"bytes32","internalType":"bytes32"}],"outputs":[{"name":"","type":"uint256","internalType":"uint256"}],"stateMutability":"pure"},{"type":"function","name":"name","inputs":[],"outputs":[{"name":"","type":"string","internalType":"string"}],"stateMutability":"view"},{"type":"function","name":"nonces","inputs":[{"name":"owner","type":"address","internalType":"address"}],"outputs":[{"name":"","type":"uint256","internalType":"uint256"}],"stateMutability":"view"},{"type":"function","name":"onERC1155BatchReceived","inputs":[{"name":"","type":"address","internalType":"address"},{"name":"","type":"address","internalType":"address"},{"name":"","type":"uint256[]","internalType":"uint256[]"},{"name":"","type":"uint256[]","internalType":"uint256[]"},{"name":"","type":"bytes","internalType":"bytes"}],"outputs":[{"name":"","type":"bytes4","internalType":"bytes4"}],"stateMutability":"nonpayable"},{"type":"function","name":"onERC1155Received","inputs":[{"name":"","type":"address","internalType":"address"},{"name":"","type":"address","internalType":"address"},{"name":"","type":"uint256","internalType":"uint256"},{"name":"","type":"uint256","internalType":"uint256"},{"name":"","type":"bytes","internalType":"bytes"}],"outputs":[{"name":"","type":"bytes4","internalType":"bytes4"}],"stateMutability":"nonpayable"},{"type":"function","name":"onERC721Received","inputs":[{"name":"","type":"address","internalType":"address"},{"name":"","type":"address","internalType":"address"},{"name":"","type":"uint256","internalType":"uint256"},{"name":"","type":"bytes","internalType":"bytes"}],"outputs":[{"name":"","type":"bytes4","internalType":"bytes4"}],"stateMutability":"nonpayable"},{"type":"function","name":"proposalDeadline","inputs":[{"name":"proposalId","type":"uint256","internalType":"uint256"}],"outputs":[{"name":"","type":"uint256","internalType":"uint256"}],"stateMutability":"view"},{"type":"function","name":"proposalEta","inputs":[{"name":"proposalId","type":"uint256","internalType":"uint256"}],"outputs":[{"name":"","type":"uint256","internalType":"uint256"}],"stateMutability":"view"},{"type":"function","name":"proposalNeedsQueuing","inputs":[{"name":"proposalId","type":"uint256","internalType":"uint256"}],"outputs":[{"name":"","type":"bool","internalType":"bool"}],"stateMutability":"view"},{"type":"function","name":"proposalProposer","inputs":[{"name":"proposalId","type":"uint256","internalType":"uint256"}],"outputs":[{"name":"","type":"address","internalType":"address"}],"stateMutability":"view"},{"type":"function","name":"proposalSnapshot","inputs":[{"name":"proposalId","type":"uint256","internalType":"uint256"}],"outputs":[{"name":"","type":"uint256","internalType":"uint256"}],"stateMutability":"view"},{"type":"function","name":"proposalThreshold","inputs":[],"outputs":[{"name":"","type":"uint256","internalType":"uint256"}],"stateMutability":"view"},{"type":"function","name":"proposalVotes","inputs":[{"name":"proposalId","type":"uint256","internalType":"uint256"}],"outputs":[{"name":"againstVotes","type":"uint256","internalType":"uint256"},{"name":"forVotes","type":"uint256","internalType":"uint256"},{"name":"abstainVotes","type":"uint256","internalType":"uint256"}],"stateMutability":"view"},{"type":"function","name":"propose","inputs":[{"name":"targets","type":"address[]","internalType":"address[]"},{"name":"values","type":"uint256[]","internalType":"uint256[]"},{"name":"calldatas","type":"bytes[]","internalType":"bytes[]"},{"name":"description","type":"string","internalType":"string"}],"outputs":[{"name":"","type":"uint256","internalType":"uint256"}],"stateMutability":"nonpayable"},{"type":"function","name":"queue","inputs":[{"name":"targets","type":"address[]","internalType":"address[]"},{"name":"values","type":"uint256[]","internalType":"uint256[]"},{"name":"calldatas","type":"bytes[]","internalType":"bytes[]"},{"name":"descriptionHash","type":"bytes32","internalType":"bytes32"}],"outputs":[{"name":"","type":"uint256","internalType":"uint256"}],"stateMutability":"nonpayable"},{"type":"function","name":"quorum","inputs":[{"name":"blockNumber","type":"uint256","internalType":"uint256"}],"outputs":[{"name":"","type":"uint256","internalType":"uint256"}],"stateMutability":"view"},{"type":"function","name":"quorumDenominator","inputs":[],"outputs":[{"name":"","type":"uint256","internalType":"uint256"}],"stateMutability":"view"},{"type":"function","name":"quorumNumerator","inputs":[{"name":"timepoint","type":"uint256","internalType":"uint256"}],"outputs":[{"name":"","type":"uint256","internalType":"uint256"}],"stateMutability":"view"},{"type":"function","name":"quorumNumerator","inputs":[],"outputs":[{"name":"","type":"uint256","internalType":"uint256"}],"stateMutability":"view"},{"type":"function","name":"relay","inputs":[{"name":"target","type":"address","internalType":"address"},{"name":"value","type":"uint256","internalType":"uint256"},{"name":"data","type":"bytes","internalType":"bytes"}],"outputs":[],"stateMutability":"payable"},{"type":"function","name":"setProposalThreshold","inputs":[{"name":"newProposalThreshold","type":"uint256","internalType":"uint256"}],"outputs":[],"stateMutability":"nonpayable"},{"type":"function","name":"setVotingDelay","inputs":[{"name":"newVotingDelay","type":"uint48","internalType":"uint48"}],"outputs":[],"stateMutability":"nonpayable"},{"type":"function","name":"setVotingPeriod","inputs":[{"name":"newVotingPeriod","type":"uint32","internalType":"uint32"}],"outputs":[],"stateMutability":"nonpayable"},{"type":"function","name":"state","inputs":[{"name":"proposalId","type":"uint256","internalType":"uint256"}],"outputs":[{"name":"","type":"uint8","internalType":"enum IGovernor.ProposalState"}],"stateMutability":"view"},{"type":"function","name":"supportsInterface","inputs":[{"name":"interfaceId","type":"bytes4","internalType":"bytes4"}],"outputs":[{"name":"","type":"bool","internalType":"bool"}],"stateMutability":"view"},{"type":"function","name":"timelock","inputs":[],"outputs":[{"name":"","type":"address","internalType":"address"}],"stateMutability":"view"},{"type":"function","name":"token","inputs":[],"outputs":[{"name":"","type":"address","internalType":"contract IERC5805"}],"stateMutability":"view"},{"type":"function","name":"updateQuorumNumerator","inputs":[{"name":"newQuorumNumerator","type":"uint256","internalType":"uint256"}],"outputs":[],"stateMutability":"nonpayable"},{"type":"function","name":"updateTimelock","inputs":[{"name":"newTimelock","type":"address","internalType":"contract TimelockController"}],"outputs":[],"stateMutability":"nonpayable"},{"type":"function","name":"version","inputs":[],"outputs":[{"name":"","type":"string","internalType":"string"}],"stateMutability":"view"},{"type":"function","name":"votingDelay","inputs":[],"outputs":[{"name":"","type":"uint256","internalType":"uint256"}],"stateMutability":"view"},{"type":"function","name":"votingPeriod","inputs":[],"outputs":[{"name":"","type":"uint256","internalType":"uint256"}],"stateMutability":"view"},{"type":"event","name":"EIP712DomainChanged","inputs":[],"anonymous":false},{"type":"event","name":"ProposalCanceled","inputs":[{"name":"proposalId","type":"uint256","indexed":false,"internalType":"uint256"}],"anonymous":false},{"type":"event","name":"ProposalCreated","inputs":[{"name":"proposalId","type":"uint256","indexed":false,"internalType":"uint256"},{"name":"proposer","type":"address","indexed":false,"internalType":"address"},{"name":"targets","type":"address[]","indexed":false,"internalType":"address[]"},{"name":"values","type":"uint256[]","indexed":false,"internalType":"uint256[]"},{"name":"signatures","type":"string[]","indexed":false,"internalType":"string[]"},{"name":"calldatas","type":"bytes[]","indexed":false,"internalType":"bytes[]"},{"name":"voteStart","type":"uint256","indexed":false,"internalType":"uint256"},{"name":"voteEnd","type":"uint256","indexed":false,"internalType":"uint256"},{"name":"description","type":"string","indexed":false,"internalType":"string"}],"anonymous":false},{"type":"event","name":"ProposalExecuted","inputs":[{"name":"proposalId","type":"uint256","indexed":false,"internalType":"uint256"}],"anonymous":false},{"type":"event","name":"ProposalQueued","inputs":[{"name":"proposalId","type":"uint256","indexed":false,"internalType":"uint256"},{"name":"etaSeconds","type":"uint256","indexed":false,"internalType":"uint256"}],"anonymous":false},{"type":"event","name":"ProposalThresholdSet","inputs":[{"name":"oldProposalThreshold","type":"uint256","indexed":false,"internalType":"uint256"},{"name":"newProposalThreshold","type":"uint256","indexed":false,"internalType":"uint256"}],"anonymous":false},{"type":"event","name":"QuorumNumeratorUpdated","inputs":[{"name":"oldQuorumNumerator","type":"uint256","indexed":false,"internalType":"uint256"},{"name":"newQuorumNumerator","type":"uint256","indexed":false,"internalType":"uint256"}],"anonymous":false},{"type":"event","name":"TimelockChange","inputs":[{"name":"oldTimelock","type":"address","indexed":false,"internalType":"address"},{"name":"newTimelock","type":"address","indexed":false,"internalType":"address"}],"anonymous":false},{"type":"event","name":"VoteCast","inputs":[{"name":"voter","type":"address","indexed":true,"internalType":"address"},{"name":"proposalId","type":"uint256","indexed":false,"internalType":"uint256"},{"name":"support","type":"uint8","indexed":false,"internalType":"uint8"},{"name":"weight","type":"uint256","indexed":false,"internalType":"uint256"},{"name":"reason","type":"string","indexed":false,"internalType":"string"}],"anonymous":false},{"type":"event","name":"VoteCastWithParams","inputs":[{"name":"voter","type":"address","indexed":true,"internalType":"address"},{"name":"proposalId","type":"uint256","indexed":false,"internalType":"uint256"},{"name":"support","type":"uint8","indexed":false,"internalType":"uint8"},{"name":"weight","type":"uint256","indexed":false,"internalType":"uint256"},{"name":"reason","type":"string","indexed":false,"internalType":"string"},{"name":"params","type":"bytes","indexed":false,"internalType":"bytes"}],"anonymous":false},{"type":"event","name":"VotingDelaySet","inputs":[{"name":"oldVotingDelay","type":"uint256","indexed":false,"internalType":"uint256"},{"name":"newVotingDelay","type":"uint256","indexed":false,"internalType":"uint256"}],"anonymous":false},{"type":"event","name":"VotingPeriodSet","inputs":[{"name":"oldVotingPeriod","type":"uint256","indexed":false,"internalType":"uint256"},{"name":"newVotingPeriod","type":"uint256","indexed":false,"internalType":"uint256"}],"anonymous":false},{"type":"error","name":"CheckpointUnorderedInsertion","inputs":[]},{"type":"error","name":"FailedInnerCall","inputs":[]},{"type":"error","name":"GovernorAlreadyCastVote","inputs":[{"name":"voter","type":"address","internalType":"address"}]},{"type":"error","name":"GovernorAlreadyQueuedProposal","inputs":[{"name":"proposalId","type":"uint256","internalType":"uint256"}]},{"type":"error","name":"GovernorDisabledDeposit","inputs":[]},{"type":"error","name":"GovernorInsufficientProposerVotes","inputs":[{"name":"proposer","type":"address","internalType":"address"},{"name":"votes","type":"uint256","internalType":"uint256"},{"name":"threshold","type":"uint256","internalType":"uint256"}]},{"type":"error","name":"GovernorInvalidProposalLength","inputs":[{"name":"targets","type":"uint256","internalType":"uint256"},{"name":"calldatas","type":"uint256","internalType":"uint256"},{"name":"values","type":"uint256","internalType":"uint256"}]},{"type":"error","name":"GovernorInvalidQuorumFraction","inputs":[{"name":"quorumNumerator","type":"uint256","internalType":"uint256"},{"name":"quorumDenominator","type":"uint256","internalType":"uint256"}]},{"type":"error","name":"GovernorInvalidSignature","inputs":[{"name":"voter","type":"address","internalType":"address"}]},{"type":"error","name":"GovernorInvalidVoteType","inputs":[]},{"type":"error","name":"GovernorInvalidVotingPeriod","inputs":[{"name":"votingPeriod","type":"uint256","internalType":"uint256"}]},{"type":"error","name":"GovernorNonexistentProposal","inputs":[{"name":"proposalId","type":"uint256","internalType":"uint256"}]},{"type":"error","name":"GovernorNotQueuedProposal","inputs":[{"name":"proposalId","type":"uint256","internalType":"uint256"}]},{"type":"error","name":"GovernorOnlyExecutor","inputs":[{"name":"account","type":"address","internalType":"address"}]},{"type":"error","name":"GovernorOnlyProposer","inputs":[{"name":"account","type":"address","internalType":"address"}]},{"type":"error","name":"GovernorQueueNotImplemented","inputs":[]},{"type":"error","name":"GovernorRestrictedProposer","inputs":[{"name":"proposer","type":"address","internalType":"address"}]},{"type":"error","name":"GovernorUnexpectedProposalState","inputs":[{"name":"proposalId","type":"uint256","internalType":"uint256"},{"name":"current","type":"uint8","internalType":"enum IGovernor.ProposalState"},{"name":"expectedStates","type":"bytes32","internalType":"bytes32"}]},{"type":"error","name":"InvalidAccountNonce","inputs":[{"name":"account","type":"address","internalType":"address"},{"name":"currentNonce","type":"uint256","internalType":"uint256"}]},{"type":"error","name":"InvalidShortString","inputs":[]},{"type":"error","name":"QueueEmpty","inputs":[]},{"type":"error","name":"QueueFull","inputs":[]},{"type":"error","name":"SafeCastOverflowedUintDowncast","inputs":[{"name":"bits","type":"uint8","internalType":"uint8"},{"name":"value","type":"uint256","internalType":"uint256"}]},{"type":"error","name":"StringTooLong","inputs":[{"name":"str","type":"string","internalType":"string"}]}],"bytecode":{"object":"0x61018060405234801562000011575f80fd5b5060405162005b6738038062005b678339810160408190526200003491620007a2565b80600483611c2061c4e069152d02c7e14af68000006040518060400160405280600d81526020016c2234ba3a37a3b7bb32b93737b960991b81525080620000806200019560201b60201c565b6200008c825f620001b0565b610120526200009d816001620001b0565b61014052815160208084019190912060e052815190820120610100524660a0526200012a60e05161010051604080517f8b73c3c69bb8fe3d512ecc4cf759cc79239f7b179b0ffacaa9a75d522b39400f60208201529081019290925260608201524660808201523060a08201525f9060c00160405160208183030381529060405280519060200120905090565b60805250503060c05260036200014182826200087f565b506200014f905083620001e8565b6200015a826200024e565b6200016581620002f3565b5050506001600160a01b031661016052620001808162000334565b506200018c81620003d3565b505050620009ff565b6040805180820190915260018152603160f81b602082015290565b5f602083511015620001cf57620001c7836200043c565b9050620001e2565b81620001dc84826200087f565b5060ff90505b92915050565b6008546040805165ffffffffffff928316815291831660208301527fc565b045403dc03c2eea82b81a0465edad9e2e7fc4d97e11421c209da93d7a93910160405180910390a16008805465ffffffffffff191665ffffffffffff92909216919091179055565b8063ffffffff165f036200027c5760405163f1cfbf0560e01b81525f60048201526024015b60405180910390fd5b6008546040805163ffffffff66010000000000009093048316815291831660208301527f7e3f7f0708a84de9203036abaa450dccc85ad5ff52f78c170f3edb55cf5e8828910160405180910390a16008805463ffffffff90921666010000000000000263ffffffff60301b19909216919091179055565b60075460408051918252602082018390527fccb45da8d5717e6c4544694297c4ba5cf151d455c9bb0ed4fc7a38411bc05461910160405180910390a1600755565b606480821115620003635760405163243e544560e01b8152600481018390526024810182905260440162000273565b5f6200036e6200047e565b9050620003936200037e62000499565b62000389856200051a565b600a919062000553565b505060408051828152602081018590527f0553476bf02ef2726e8ce5ced78d63e26e602e4a2257b1f559418e24b4633997910160405180910390a1505050565b600b54604080516001600160a01b03928316815291831660208301527f08f74ea46ef7894f65eabfb5e6e695de773a000b47c529ab559178069b226401910160405180910390a1600b80546001600160a01b0319166001600160a01b0392909216919091179055565b5f80829050601f8151111562000469578260405163305a27a960e01b815260040162000273919062000947565b8051620004768262000994565b179392505050565b5f6200048b600a6200056f565b6001600160d01b0316905090565b5f620004a56101605190565b6001600160a01b03166391ddadf46040518163ffffffff1660e01b8152600401602060405180830381865afa92505050801562000501575060408051601f3d908101601f19168201909252620004fe91810190620009b8565b60015b620005155762000510620005bc565b905090565b919050565b5f6001600160d01b038211156200054f576040516306dfcc6560e41b815260d060048201526024810183905260440162000273565b5090565b5f8062000562858585620005c8565b915091505b935093915050565b80545f908015620005b35762000599836200058c600184620009df565b5f91825260209091200190565b54660100000000000090046001600160d01b0316620005b5565b5f5b9392505050565b5f620005104362000756565b82545f9081908015620006f8575f620005e8876200058c600185620009df565b60408051808201909152905465ffffffffffff80821680845266010000000000009092046001600160d01b0316602084015291925090871610156200064057604051632520601d60e01b815260040160405180910390fd5b805165ffffffffffff80881691160362000694578462000667886200058c600186620009df565b80546001600160d01b039290921666010000000000000265ffffffffffff909216919091179055620006e7565b6040805180820190915265ffffffffffff80881682526001600160d01b0380881660208085019182528b54600181018d555f8d815291909120945191519092166601000000000000029216919091179101555b602001519250839150620005679050565b50506040805180820190915265ffffffffffff80851682526001600160d01b0380851660208085019182528854600181018a555f8a815291822095519251909316660100000000000002919093161792019190915590508162000567565b5f65ffffffffffff8211156200054f576040516306dfcc6560e41b8152603060048201526024810183905260440162000273565b6001600160a01b03811681146200079f575f80fd5b50565b5f8060408385031215620007b4575f80fd5b8251620007c1816200078a565b6020840151909250620007d4816200078a565b809150509250929050565b634e487b7160e01b5f52604160045260245ffd5b600181811c908216806200080857607f821691505b6020821081036200082757634e487b7160e01b5f52602260045260245ffd5b50919050565b601f8211156200087a575f81815260208120601f850160051c81016020861015620008555750805b601f850160051c820191505b81811015620008765782815560010162000861565b5050505b505050565b81516001600160401b038111156200089b576200089b620007df565b620008b381620008ac8454620007f3565b846200082d565b602080601f831160018114620008e9575f8415620008d15750858301515b5f19600386901b1c1916600185901b17855562000876565b5f85815260208120601f198616915b828110156200091957888601518255948401946001909101908401620008f8565b50858210156200093757878501515f19600388901b60f8161c191681555b5050505050600190811b01905550565b5f6020808352835180828501525f5b81811015620009745785810183015185820160400152820162000956565b505f604082860101526040601f19601f8301168501019250505092915050565b8051602080830151919081101562000827575f1960209190910360031b1b16919050565b5f60208284031215620009c9575f80fd5b815165ffffffffffff81168114620005b5575f80fd5b81810381811115620001e257634e487b7160e01b5f52601160045260245ffd5b60805160a05160c05160e051610100516101205161014051610160516150f062000a775f395f8181610ae3015281816110da0152818161176c015281816127940152612aaf01525f61276101525f61273501525f61326a01525f61324201525f61319d01525f6131c701525f6131f101526150f05ff3fe608060405260043610610306575f3560e01c80637ecebe0011610191578063c01f9e37116100dc578063e540d01d11610087578063f23a6e6111610062578063f23a6e6114610a97578063f8ce560a14610ab6578063fc0c546a14610ad5575f80fd5b8063e540d01d14610a3a578063eb9019d414610a59578063ece40cc114610a78575f80fd5b8063d33219b4116100b7578063d33219b414610998578063dd4e2ba5146109c2578063deaaa7cc14610a07575f80fd5b8063c01f9e3714610947578063c28bc2fa14610966578063c59057e414610979575f80fd5b8063a7713a701161013c578063ab58fb8e11610117578063ab58fb8e146108de578063b58131b014610914578063bc197c8114610928575f80fd5b8063a7713a701461088c578063a890c910146108a0578063a9a95294146108bf575f80fd5b806391ddadf41161016c57806391ddadf41461082f57806397c3d3341461085a5780639a802a6d1461086d575f80fd5b80637ecebe00146107a857806384b0196e146107e95780638ff262e314610810575f80fd5b806343859632116102515780635b8d0e0d116101fc57806379051887116101d7578063790518871461074b5780637b3c71d31461076a5780637d5e81e214610789575f80fd5b80635b8d0e0d146106ee5780635f398a141461070d57806360c4247f1461072c575f80fd5b8063544ffc9c1161022c578063544ffc9c1461063757806354fd4d501461068a57806356781388146106cf575f80fd5b806343859632146105af578063452115d6146106045780634bf5d7e914610623575f80fd5b8063160cbed7116102b15780632fe3e2611161028c5780632fe3e2611461053c5780633932abb11461056f5780633e4f49e614610583575f80fd5b8063160cbed7146104bf5780632656227d146104de5780632d63f693146104f1575f80fd5b806306fdde03116102e157806306fdde03146103e8578063143489d014610409578063150b7a021461046f575f80fd5b806301ffc9a71461036757806302a251a31461039b57806306f3f9e6146103c9575f80fd5b366103635730610314610b07565b73ffffffffffffffffffffffffffffffffffffffff1614610361576040517fe90a651e00000000000000000000000000000000000000000000000000000000815260040160405180910390fd5b005b5f80fd5b348015610372575f80fd5b50610386610381366004613eb7565b610b2c565b60405190151581526020015b60405180910390f35b3480156103a6575f80fd5b506008546601000000000000900463ffffffff165b604051908152602001610392565b3480156103d4575f80fd5b506103616103e3366004613ef6565b610c10565b3480156103f3575f80fd5b506103fc610c24565b6040516103929190613f78565b348015610414575f80fd5b5061044a610423366004613ef6565b5f9081526004602052604090205473ffffffffffffffffffffffffffffffffffffffff1690565b60405173ffffffffffffffffffffffffffffffffffffffff9091168152602001610392565b34801561047a575f80fd5b5061048e6104893660046140c5565b610cb4565b6040517fffffffff000000000000000000000000000000000000000000000000000000009091168152602001610392565b3480156104ca575f80fd5b506103bb6104d9366004614290565b610d35565b6103bb6104ec366004614290565b610e33565b3480156104fc575f80fd5b506103bb61050b366004613ef6565b5f9081526004602052604090205474010000000000000000000000000000000000000000900465ffffffffffff1690565b348015610547575f80fd5b506103bb7f3e83946653575f9a39005e1545185629e92736b7528ab20ca3816f315424a81181565b34801561057a575f80fd5b506103bb611023565b34801561058e575f80fd5b506105a261059d366004613ef6565b611035565b6040516103929190614380565b3480156105ba575f80fd5b506103866105c936600461438e565b5f82815260096020908152604080832073ffffffffffffffffffffffffffffffffffffffff8516845260030190915290205460ff1692915050565b34801561060f575f80fd5b506103bb61061e366004614290565b61103f565b34801561062e575f80fd5b506103fc6110d6565b348015610642575f80fd5b5061066f610651366004613ef6565b5f908152600960205260409020805460018201546002909201549092565b60408051938452602084019290925290820152606001610392565b348015610695575f80fd5b5060408051808201909152600181527f310000000000000000000000000000000000000000000000000000000000000060208201526103fc565b3480156106da575f80fd5b506103bb6106e93660046143cc565b6111c1565b3480156106f9575f80fd5b506103bb61070836600461443b565b6111e8565b348015610718575f80fd5b506103bb6107273660046144ee565b611384565b348015610737575f80fd5b506103bb610746366004613ef6565b6113d7565b348015610756575f80fd5b5061036161076536600461457f565b61149f565b348015610775575f80fd5b506103bb61078436600461459a565b6114b0565b348015610794575f80fd5b506103bb6107a33660046145f0565b6114f6565b3480156107b3575f80fd5b506103bb6107c236600461469d565b73ffffffffffffffffffffffffffffffffffffffff165f9081526002602052604090205490565b3480156107f4575f80fd5b506107fd6115fc565b60405161039297969594939291906146f1565b34801561081b575f80fd5b506103bb61082a366004614787565b61165a565b34801561083a575f80fd5b50610843611769565b60405165ffffffffffff9091168152602001610392565b348015610865575f80fd5b5060646103bb565b348015610878575f80fd5b506103bb6108873660046147d5565b61181b565b348015610897575f80fd5b506103bb611827565b3480156108ab575f80fd5b506103616108ba36600461469d565b611853565b3480156108ca575f80fd5b506103866108d9366004613ef6565b611864565b3480156108e9575f80fd5b506103bb6108f8366004613ef6565b5f9081526004602052604090206001015465ffffffffffff1690565b34801561091f575f80fd5b506103bb61186c565b348015610933575f80fd5b5061048e61094236600461482a565b611876565b348015610952575f80fd5b506103bb610961366004613ef6565b6118f8565b6103616109743660046148b7565b611962565b348015610984575f80fd5b506103bb610993366004614290565b6119eb565b3480156109a3575f80fd5b50600b5473ffffffffffffffffffffffffffffffffffffffff1661044a565b3480156109cd575f80fd5b506040805180820190915260208082527f737570706f72743d627261766f2671756f72756d3d666f722c6162737461696e908201526103fc565b348015610a12575f80fd5b506103bb7ff2aad550cf55f045cb27e9c559f9889fdfb6e6cdaa032301d6ea397784ae51d781565b348015610a45575f80fd5b50610361610a543660046148f7565b611a42565b348015610a64575f80fd5b506103bb610a7336600461491a565b611a53565b348015610a83575f80fd5b50610361610a92366004613ef6565b611a79565b348015610aa2575f80fd5b5061048e610ab1366004614944565b611a8a565b348015610ac1575f80fd5b506103bb610ad0366004613ef6565b611b0c565b348015610ae0575f80fd5b507f000000000000000000000000000000000000000000000000000000000000000061044a565b5f610b27600b5473ffffffffffffffffffffffffffffffffffffffff1690565b905090565b5f7fffffffff0000000000000000000000000000000000000000000000000000000082167f65455a86000000000000000000000000000000000000000000000000000000001480610bbe57507fffffffff0000000000000000000000000000000000000000000000000000000082167f4e2312e000000000000000000000000000000000000000000000000000000000145b80610c0a57507f01ffc9a7000000000000000000000000000000000000000000000000000000007fffffffff000000000000000000000000000000000000000000000000000000008316145b92915050565b610c18611b16565b610c2181611bc2565b50565b606060038054610c33906149a8565b80601f0160208091040260200160405190810160405280929190818152602001828054610c5f906149a8565b8015610caa5780601f10610c8157610100808354040283529160200191610caa565b820191905f5260205f20905b815481529060010190602001808311610c8d57829003601f168201915b5050505050905090565b5f30610cbe610b07565b73ffffffffffffffffffffffffffffffffffffffff1614610d0b576040517fe90a651e00000000000000000000000000000000000000000000000000000000815260040160405180910390fd5b507f150b7a0200000000000000000000000000000000000000000000000000000000949350505050565b5f80610d43868686866119eb565b9050610d5881610d536004611c70565b611c92565b505f610d678288888888611ce8565b905065ffffffffffff811615610df7575f8281526004602090815260409182902060010180547fffffffffffffffffffffffffffffffffffffffffffffffffffff0000000000001665ffffffffffff85169081179091558251858152918201527f9a2e42fd6722813d69113e7d0079d3d940171428df7373df9c7f7617cfda2892910160405180910390a1610e29565b6040517f90884a4600000000000000000000000000000000000000000000000000000000815260040160405180910390fd5b5095945050505050565b5f80610e41868686866119eb565b9050610e6181610e516005611c70565b610e5b6004611c70565b17611c92565b505f81815260046020526040902080547fff00ffffffffffffffffffffffffffffffffffffffffffffffffffffffffffff167e0100000000000000000000000000000000000000000000000000000000000017905530610ebf610b07565b73ffffffffffffffffffffffffffffffffffffffff1614610f77575f5b8651811015610f75573073ffffffffffffffffffffffffffffffffffffffff16878281518110610f0e57610f0e6149f9565b602002602001015173ffffffffffffffffffffffffffffffffffffffff1603610f6557610f65858281518110610f4657610f466149f9565b6020026020010151805190602001206005611cf690919063ffffffff16565b610f6e81614a53565b9050610edc565b505b610f848187878787611dab565b30610f8d610b07565b73ffffffffffffffffffffffffffffffffffffffff1614158015610fdc57506005546fffffffffffffffffffffffffffffffff8082167001000000000000000000000000000000009092041614155b15610fe6575f6005555b6040518181527f712ae1383f79ac853f8d882153778e0260ef8f03b504e2866e0593e04d2b291f906020015b60405180910390a195945050505050565b5f610b2760085465ffffffffffff1690565b5f610c0a82611dbf565b5f8061104d868686866119eb565b905061105c81610d535f611c70565b505f8181526004602052604090205473ffffffffffffffffffffffffffffffffffffffff1633146110c0576040517f233d98e30000000000000000000000000000000000000000000000000000000081523360048201526024015b60405180910390fd5b6110cc86868686611f44565b9695505050505050565b60607f000000000000000000000000000000000000000000000000000000000000000073ffffffffffffffffffffffffffffffffffffffff16634bf5d7e96040518163ffffffff1660e01b81526004015f60405180830381865afa92505050801561118057506040513d5f823e601f3d9081017fffffffffffffffffffffffffffffffffffffffffffffffffffffffffffffffe016820160405261117d9190810190614a8a565b60015b6111bc575060408051808201909152601d81527f6d6f64653d626c6f636b6e756d6265722666726f6d3d64656661756c74000000602082015290565b919050565b5f803390506111e084828560405180602001604052805f815250611f5a565b949350505050565b5f806112e3876112dd7f3e83946653575f9a39005e1545185629e92736b7528ab20ca3816f315424a8118c8c8c6112488e73ffffffffffffffffffffffffffffffffffffffff165f90815260026020526040902080546001810190915590565b8d8d604051611258929190614af3565b60405180910390208c805190602001206040516020016112c29796959493929190968752602087019590955260ff93909316604086015273ffffffffffffffffffffffffffffffffffffffff919091166060850152608084015260a083015260c082015260e00190565b60405160208183030381529060405280519060200120611f7b565b85611fc2565b905080611334576040517f94ab6c0700000000000000000000000000000000000000000000000000000000815273ffffffffffffffffffffffffffffffffffffffff881660048201526024016110b7565b61137789888a89898080601f0160208091040260200160405190810160405280939291908181526020018383808284375f920191909152508b9250612031915050565b9998505050505050505050565b5f803390506113cc87828888888080601f0160208091040260200160405190810160405280939291908181526020018383808284375f920191909152508a9250612031915050565b979650505050505050565b600a80545f9182906113ea600184614b02565b815481106113fa576113fa6149f9565b5f918252602090912001805490915065ffffffffffff8116906601000000000000900479ffffffffffffffffffffffffffffffffffffffffffffffffffff168582116114655779ffffffffffffffffffffffffffffffffffffffffffffffffffff1695945050505050565b6114796114718761214b565b600a9061219a565b79ffffffffffffffffffffffffffffffffffffffffffffffffffff169695505050505050565b6114a7611b16565b610c218161225f565b5f803390506110cc86828787878080601f0160208091040260200160405190810160405280939291908181526020018383808284375f92019190915250611f5a92505050565b5f3361150281846122de565b611550576040517fd9b3955700000000000000000000000000000000000000000000000000000000815273ffffffffffffffffffffffffffffffffffffffff821660048201526024016110b7565b5f61157682600161155f611769565b6115699190614b15565b65ffffffffffff16611a53565b90505f61158161186c565b9050808210156115e3576040517fc242ee1600000000000000000000000000000000000000000000000000000000815273ffffffffffffffffffffffffffffffffffffffff8416600482015260248101839052604481018290526064016110b7565b6115f08888888887612452565b98975050505050505050565b5f6060805f805f606061160d61272e565b61161561275a565b604080515f808252602082019092527f0f000000000000000000000000000000000000000000000000000000000000009b939a50919850469750309650945092509050565b5f806116fe846112dd7ff2aad550cf55f045cb27e9c559f9889fdfb6e6cdaa032301d6ea397784ae51d78989896116ba8b73ffffffffffffffffffffffffffffffffffffffff165f90815260026020526040902080546001810190915590565b60408051602081019690965285019390935260ff909116606084015273ffffffffffffffffffffffffffffffffffffffff16608083015260a082015260c0016112c2565b90508061174f576040517f94ab6c0700000000000000000000000000000000000000000000000000000000815273ffffffffffffffffffffffffffffffffffffffff851660048201526024016110b7565b6110cc86858760405180602001604052805f815250611f5a565b5f7f000000000000000000000000000000000000000000000000000000000000000073ffffffffffffffffffffffffffffffffffffffff166391ddadf46040518163ffffffff1660e01b8152600401602060405180830381865afa92505050801561180f575060408051601f3d9081017fffffffffffffffffffffffffffffffffffffffffffffffffffffffffffffffe016820190925261180c91810190614b3b565b60015b6111bc57610b27612787565b5f6111e0848484612791565b5f611832600a61284a565b79ffffffffffffffffffffffffffffffffffffffffffffffffffff16905090565b61185b611b16565b610c2181612897565b5f6001610c0a565b5f610b2760075490565b5f30611880610b07565b73ffffffffffffffffffffffffffffffffffffffff16146118cd576040517fe90a651e00000000000000000000000000000000000000000000000000000000815260040160405180910390fd5b507fbc197c810000000000000000000000000000000000000000000000000000000095945050505050565b5f81815260046020526040812054611954907a010000000000000000000000000000000000000000000000000000810463ffffffff169074010000000000000000000000000000000000000000900465ffffffffffff16614b56565b65ffffffffffff1692915050565b61196a611b16565b5f808573ffffffffffffffffffffffffffffffffffffffff16858585604051611994929190614af3565b5f6040518083038185875af1925050503d805f81146119ce576040519150601f19603f3d011682016040523d82523d5f602084013e6119d3565b606091505b50915091506119e28282612932565b50505050505050565b5f84848484604051602001611a039493929190614c0c565b604080517fffffffffffffffffffffffffffffffffffffffffffffffffffffffffffffffe0818403018152919052805160209091012095945050505050565b611a4a611b16565b610c218161294e565b5f611a728383611a6d60408051602081019091525f815290565b612791565b9392505050565b611a81611b16565b610c2181612a1e565b5f30611a94610b07565b73ffffffffffffffffffffffffffffffffffffffff1614611ae1576040517fe90a651e00000000000000000000000000000000000000000000000000000000815260040160405180910390fd5b507ff23a6e610000000000000000000000000000000000000000000000000000000095945050505050565b5f610c0a82612a5f565b33611b1f610b07565b73ffffffffffffffffffffffffffffffffffffffff1614611b6e576040517f47096e470000000000000000000000000000000000000000000000000000000081523360048201526024016110b7565b30611b77610b07565b73ffffffffffffffffffffffffffffffffffffffff1614611bc0575f8036604051611ba3929190614af3565b604051809103902090505b80611bb96005612b2c565b03611bae57505b565b606480821115611c08576040517f243e544500000000000000000000000000000000000000000000000000000000815260048101839052602481018290526044016110b7565b5f611c11611827565b9050611c30611c1e611769565b611c2785612bef565b600a9190612c4e565b505060408051828152602081018590527f0553476bf02ef2726e8ce5ced78d63e26e602e4a2257b1f559418e24b4633997910160405180910390a1505050565b5f816007811115611c8357611c8361431a565b600160ff919091161b92915050565b5f80611c9d84611035565b90505f83611caa83611c70565b1603611a72578381846040517f31b75e4d0000000000000000000000000000000000000000000000000000000081526004016110b793929190614c56565b5f6110cc8686868686612c68565b81546fffffffffffffffffffffffffffffffff700100000000000000000000000000000000820481169181166001830190911603611d60576040517f8acb5f2700000000000000000000000000000000000000000000000000000000815260040160405180910390fd5b6fffffffffffffffffffffffffffffffff8082165f90815260018086016020526040909120939093558354919092018216700100000000000000000000000000000000029116179055565b611db88585858585612e72565b5050505050565b5f80611dca83612f22565b90506005816007811115611de057611de061431a565b14611deb5792915050565b5f838152600c60205260409081902054600b5491517f584b153e00000000000000000000000000000000000000000000000000000000815260048101829052909173ffffffffffffffffffffffffffffffffffffffff169063584b153e90602401602060405180830381865afa158015611e67573d5f803e3d5ffd5b505050506040513d601f19601f82011682018060405250810190611e8b9190614c78565b15611e9a575060059392505050565b600b546040517f2ab0f5290000000000000000000000000000000000000000000000000000000081526004810183905273ffffffffffffffffffffffffffffffffffffffff90911690632ab0f52990602401602060405180830381865afa158015611f07573d5f803e3d5ffd5b505050506040513d601f19601f82011682018060405250810190611f2b9190614c78565b15611f3a575060079392505050565b5060029392505050565b5f611f51858585856130c7565b95945050505050565b5f611f5185858585611f7660408051602081019091525f815290565b612031565b5f610c0a611f87613184565b836040517f19010000000000000000000000000000000000000000000000000000000000008152600281019290925260228201526042902090565b5f805f611fcf85856132ba565b5090925090505f816003811115611fe857611fe861431a565b14801561202057508573ffffffffffffffffffffffffffffffffffffffff168273ffffffffffffffffffffffffffffffffffffffff16145b806110cc57506110cc868686613303565b5f61204086610d536001611c70565b505f8681526004602052604081205461207b90879074010000000000000000000000000000000000000000900465ffffffffffff1685612791565b905061208a878787848761344b565b82515f036120eb578573ffffffffffffffffffffffffffffffffffffffff167fb8e138887d0aa13bab447e82de9d5c1777041ecd21ca36ba824ff1e6c07ddda4888784886040516120de9493929190614c97565b60405180910390a26110cc565b8573ffffffffffffffffffffffffffffffffffffffff167fe2babfbac5889a709b63bb7f598b324e08bc5a4fb9ec647fb3cbc9ec07eb87128887848888604051612139959493929190614cbe565b60405180910390a29695505050505050565b5f65ffffffffffff821115612196576040517f6dfcc65000000000000000000000000000000000000000000000000000000000815260306004820152602481018390526044016110b7565b5090565b81545f90818160058111156121f6575f6121b3846135f9565b6121bd9085614b02565b5f8881526020902090915081015465ffffffffffff90811690871610156121e6578091506121f4565b6121f1816001614cf7565b92505b505b5f612203878785856136dd565b90508015612253576122278761221a600184614b02565b5f91825260209091200190565b546601000000000000900479ffffffffffffffffffffffffffffffffffffffffffffffffffff166113cc565b5f979650505050505050565b6008546040805165ffffffffffff928316815291831660208301527fc565b045403dc03c2eea82b81a0465edad9e2e7fc4d97e11421c209da93d7a93910160405180910390a1600880547fffffffffffffffffffffffffffffffffffffffffffffffffffff0000000000001665ffffffffffff92909216919091179055565b80515f9060348110156122f5576001915050610c0a565b8281017fffffffffffffffffffffffffffffffffffffffffffffffffffffffffffffffec01517fffffffffffffffffffffffff000000000000000000000000000000000000000081167f2370726f706f7365723d307800000000000000000000000000000000000000001461236f57600192505050610c0a565b5f8061237c602885614b02565b90505b83811015612417575f806123ca88848151811061239e5761239e6149f9565b01602001517fff000000000000000000000000000000000000000000000000000000000000001661373c565b91509150816123e25760019650505050505050610c0a565b8060ff1660048573ffffffffffffffffffffffffffffffffffffffff16901b17935050508061241090614a53565b905061237f565b508573ffffffffffffffffffffffffffffffffffffffff168173ffffffffffffffffffffffffffffffffffffffff1614935050505092915050565b5f61246686868686805190602001206119eb565b90508451865114158061247b57508351865114155b8061248557508551155b156124d3578551845186516040517f447b05d00000000000000000000000000000000000000000000000000000000081526004810193909352602483019190915260448201526064016110b7565b5f8181526004602052604090205474010000000000000000000000000000000000000000900465ffffffffffff1615612546578061251082611035565b6040517f31b75e4d0000000000000000000000000000000000000000000000000000000081526110b79291905f90600401614c56565b5f61254f611023565b612557611769565b65ffffffffffff166125699190614cf7565b90505f61258660085463ffffffff66010000000000009091041690565b5f84815260046020526040902080547fffffffffffffffffffffffff00000000000000000000000000000000000000001673ffffffffffffffffffffffffffffffffffffffff87161781559091506125dd8361214b565b815465ffffffffffff9190911674010000000000000000000000000000000000000000027fffffffffffff000000000000ffffffffffffffffffffffffffffffffffffffff90911617815561263182613826565b815463ffffffff919091167a010000000000000000000000000000000000000000000000000000027fffff00000000ffffffffffffffffffffffffffffffffffffffffffffffffffff90911617815588517f7d84a6263ae0d98d3329bd7b46bb4e8d6f98cd35a7adb45c274c8b7fd5ebd5e090859087908c908c9067ffffffffffffffff8111156126c4576126c4613fab565b6040519080825280602002602001820160405280156126f757816020015b60608152602001906001900390816126e25790505b508c896127048a82614cf7565b8e60405161271a99989796959493929190614d0a565b60405180910390a150505095945050505050565b6060610b277f00000000000000000000000000000000000000000000000000000000000000005f61386f565b6060610b277f0000000000000000000000000000000000000000000000000000000000000000600161386f565b5f610b274361214b565b5f7f00000000000000000000000000000000000000000000000000000000000000006040517f3a46b1a800000000000000000000000000000000000000000000000000000000815273ffffffffffffffffffffffffffffffffffffffff8681166004830152602482018690529190911690633a46b1a890604401602060405180830381865afa158015612826573d5f803e3d5ffd5b505050506040513d601f19601f820116820180604052508101906111e09190614e0b565b80545f90801561288f576128638361221a600184614b02565b546601000000000000900479ffffffffffffffffffffffffffffffffffffffffffffffffffff16611a72565b5f9392505050565b600b546040805173ffffffffffffffffffffffffffffffffffffffff928316815291831660208301527f08f74ea46ef7894f65eabfb5e6e695de773a000b47c529ab559178069b226401910160405180910390a1600b80547fffffffffffffffffffffffff00000000000000000000000000000000000000001673ffffffffffffffffffffffffffffffffffffffff92909216919091179055565b6060826129475761294282613918565b610c0a565b5080610c0a565b8063ffffffff165f0361298f576040517ff1cfbf050000000000000000000000000000000000000000000000000000000081525f60048201526024016110b7565b6008546040805163ffffffff66010000000000009093048316815291831660208301527f7e3f7f0708a84de9203036abaa450dccc85ad5ff52f78c170f3edb55cf5e8828910160405180910390a16008805463ffffffff9092166601000000000000027fffffffffffffffffffffffffffffffffffffffffffff00000000ffffffffffff909216919091179055565b60075460408051918252602082018390527fccb45da8d5717e6c4544694297c4ba5cf151d455c9bb0ed4fc7a38411bc05461910160405180910390a1600755565b5f6064612a6b836113d7565b6040517f8e539e8c0000000000000000000000000000000000000000000000000000000081526004810185905273ffffffffffffffffffffffffffffffffffffffff7f00000000000000000000000000000000000000000000000000000000000000001690638e539e8c90602401602060405180830381865afa158015612af4573d5f803e3d5ffd5b505050506040513d601f19601f82011682018060405250810190612b189190614e0b565b612b229190614e22565b610c0a9190614e66565b80545f906fffffffffffffffffffffffffffffffff808216917001000000000000000000000000000000009004168103612b92576040517f75e52f4f00000000000000000000000000000000000000000000000000000000815260040160405180910390fd5b6fffffffffffffffffffffffffffffffff8181165f908152600185810160205260408220805492905585547fffffffffffffffffffffffffffffffff00000000000000000000000000000000169301909116919091179092555090565b5f79ffffffffffffffffffffffffffffffffffffffffffffffffffff821115612196576040517f6dfcc65000000000000000000000000000000000000000000000000000000000815260d06004820152602481018390526044016110b7565b5f80612c5b85858561395a565b915091505b935093915050565b5f80600b5f9054906101000a900473ffffffffffffffffffffffffffffffffffffffff1673ffffffffffffffffffffffffffffffffffffffff1663f27a0c926040518163ffffffff1660e01b8152600401602060405180830381865afa158015612cd4573d5f803e3d5ffd5b505050506040513d601f19601f82011682018060405250810190612cf89190614e0b565b90505f3060601b7fffffffffffffffffffffffffffffffffffffffff000000000000000000000000168418600b546040517fb1c5f42700000000000000000000000000000000000000000000000000000000815291925073ffffffffffffffffffffffffffffffffffffffff169063b1c5f42790612d82908a908a908a905f908890600401614e9e565b602060405180830381865afa158015612d9d573d5f803e3d5ffd5b505050506040513d601f19601f82011682018060405250810190612dc19190614e0b565b5f898152600c602052604080822092909255600b5491517f8f2a0bb000000000000000000000000000000000000000000000000000000000815273ffffffffffffffffffffffffffffffffffffffff90921691638f2a0bb091612e31918b918b918b919088908a90600401614eeb565b5f604051808303815f87803b158015612e48575f80fd5b505af1158015612e5a573d5f803e3d5ffd5b505050506115f08242612e6d9190614cf7565b61214b565b600b5473ffffffffffffffffffffffffffffffffffffffff1663e38335e5348686865f3060601b7fffffffffffffffffffffffffffffffffffffffff0000000000000000000000001688186040518763ffffffff1660e01b8152600401612edd959493929190614e9e565b5f604051808303818588803b158015612ef4575f80fd5b505af1158015612f06573d5f803e3d5ffd5b5050505f9687525050600c602052505060408320929092555050565b5f818152600460205260408120805460ff7e0100000000000000000000000000000000000000000000000000000000000082048116917f01000000000000000000000000000000000000000000000000000000000000009004168115612f8d57506007949350505050565b8015612f9e57506002949350505050565b5f8581526004602052604081205474010000000000000000000000000000000000000000900465ffffffffffff169050805f0361300a576040517f6ad06075000000000000000000000000000000000000000000000000000000008152600481018790526024016110b7565b5f613013611769565b65ffffffffffff16905080821061303057505f9695505050505050565b5f61303a886118f8565b905081811061305157506001979650505050505050565b61305a88613b41565b158061307957505f888152600960205260409020805460019091015411155b1561308c57506003979650505050505050565b5f8881526004602052604090206001015465ffffffffffff165f036130b957506004979650505050505050565b506005979650505050505050565b5f806130d586868686613ba2565b5f818152600c60205260409020549091508015610e2957600b546040517fc4d252f50000000000000000000000000000000000000000000000000000000081526004810183905273ffffffffffffffffffffffffffffffffffffffff9091169063c4d252f5906024015f604051808303815f87803b158015613155575f80fd5b505af1158015613167573d5f803e3d5ffd5b5050505f838152600c602052604081205550509050949350505050565b5f3073ffffffffffffffffffffffffffffffffffffffff7f0000000000000000000000000000000000000000000000000000000000000000161480156131e957507f000000000000000000000000000000000000000000000000000000000000000046145b1561321357507f000000000000000000000000000000000000000000000000000000000000000090565b610b27604080517f8b73c3c69bb8fe3d512ecc4cf759cc79239f7b179b0ffacaa9a75d522b39400f60208201527f0000000000000000000000000000000000000000000000000000000000000000918101919091527f000000000000000000000000000000000000000000000000000000000000000060608201524660808201523060a08201525f9060c00160405160208183030381529060405280519060200120905090565b5f805f83516041036132f1576020840151604085015160608601515f1a6132e388828585613c85565b9550955095505050506132fc565b505081515f91506002905b9250925092565b5f805f8573ffffffffffffffffffffffffffffffffffffffff168585604051602401613330929190614f42565b604080517fffffffffffffffffffffffffffffffffffffffffffffffffffffffffffffffe08184030181529181526020820180517bffffffffffffffffffffffffffffffffffffffffffffffffffffffff167f1626ba7e00000000000000000000000000000000000000000000000000000000179052516133b19190614f5a565b5f60405180830381855afa9150503d805f81146133e9576040519150601f19603f3d011682016040523d82523d5f602084013e6133ee565b606091505b509150915081801561340257506020815110155b80156110cc575080517f1626ba7e00000000000000000000000000000000000000000000000000000000906134409083016020908101908401614e0b565b149695505050505050565b5f85815260096020908152604080832073ffffffffffffffffffffffffffffffffffffffff88168452600381019092529091205460ff16156134d1576040517f71c6af4900000000000000000000000000000000000000000000000000000000815273ffffffffffffffffffffffffffffffffffffffff861660048201526024016110b7565b73ffffffffffffffffffffffffffffffffffffffff85165f908152600382016020526040902080547fffffffffffffffffffffffffffffffffffffffffffffffffffffffffffffff0016600117905560ff84166135455782815f015f82825461353a9190614cf7565b909155506135f19050565b7fffffffffffffffffffffffffffffffffffffffffffffffffffffffffffffffff60ff8516016135825782816001015f82825461353a9190614cf7565b7ffffffffffffffffffffffffffffffffffffffffffffffffffffffffffffffffe60ff8516016135bf5782816002015f82825461353a9190614cf7565b6040517f06b337c200000000000000000000000000000000000000000000000000000000815260040160405180910390fd5b505050505050565b5f815f0361360857505f919050565b5f600161361484613d78565b901c6001901b9050600181848161362d5761362d614e39565b048201901c9050600181848161364557613645614e39565b048201901c9050600181848161365d5761365d614e39565b048201901c9050600181848161367557613675614e39565b048201901c9050600181848161368d5761368d614e39565b048201901c905060018184816136a5576136a5614e39565b048201901c905060018184816136bd576136bd614e39565b048201901c9050611a72818285816136d7576136d7614e39565b04613e0b565b5f5b81831015613734575f6136f28484613e20565b5f8781526020902090915065ffffffffffff86169082015465ffffffffffff1611156137205780925061372e565b61372b816001614cf7565b93505b506136df565b509392505050565b5f8060f883901c602f811180156137565750603a8160ff16105b15613789576001947fffffffffffffffffffffffffffffffffffffffffffffffffffffffffffffffd09091019350915050565b8060ff16604010801561379f575060478160ff16105b156137d2576001947fffffffffffffffffffffffffffffffffffffffffffffffffffffffffffffffc99091019350915050565b8060ff1660601080156137e8575060678160ff16105b1561381b576001947fffffffffffffffffffffffffffffffffffffffffffffffffffffffffffffffa99091019350915050565b505f93849350915050565b5f63ffffffff821115612196576040517f6dfcc65000000000000000000000000000000000000000000000000000000000815260206004820152602481018390526044016110b7565b606060ff83146138895761388283613e3a565b9050610c0a565b818054613895906149a8565b80601f01602080910402602001604051908101604052809291908181526020018280546138c1906149a8565b801561390c5780601f106138e35761010080835404028352916020019161390c565b820191905f5260205f20905b8154815290600101906020018083116138ef57829003601f168201915b50505050509050610c0a565b8051156139285780518082602001fd5b6040517f1425ea4200000000000000000000000000000000000000000000000000000000815260040160405180910390fd5b82545f9081908015613ad1575f6139768761221a600185614b02565b60408051808201909152905465ffffffffffff808216808452660100000000000090920479ffffffffffffffffffffffffffffffffffffffffffffffffffff16602084015291925090871610156139f9576040517f2520601d00000000000000000000000000000000000000000000000000000000815260040160405180910390fd5b805165ffffffffffff808816911603613a5b5784613a1c8861221a600186614b02565b805479ffffffffffffffffffffffffffffffffffffffffffffffffffff9290921666010000000000000265ffffffffffff909216919091179055613ac1565b6040805180820190915265ffffffffffff808816825279ffffffffffffffffffffffffffffffffffffffffffffffffffff80881660208085019182528b54600181018d555f8d815291909120945191519092166601000000000000029216919091179101555b602001519250839150612c609050565b50506040805180820190915265ffffffffffff808516825279ffffffffffffffffffffffffffffffffffffffffffffffffffff80851660208085019182528854600181018a555f8a8152918220955192519093166601000000000000029190931617920191909155905081612c60565b5f81815260096020526040812060028101546001820154613b629190614cf7565b5f84815260046020526040902054613b999074010000000000000000000000000000000000000000900465ffffffffffff16611b0c565b11159392505050565b5f80613bb0868686866119eb565b9050613bfe81613bc06007611c70565b613bca6006611c70565b613bd46002611c70565b6001613be1600782614f75565b613bec9060026150ac565b613bf69190614b02565b181818611c92565b505f818152600460205260409081902080547effffffffffffffffffffffffffffffffffffffffffffffffffffffffffffff167f0100000000000000000000000000000000000000000000000000000000000000179055517f789cf55be980739dad1d0699b93b58e806b51c9d96619bfa8fe0a28abaa7b30c906110129083815260200190565b5f80807f7fffffffffffffffffffffffffffffff5d576e7357a4501ddfe92f46681b20a0841115613cbe57505f91506003905082613d6e565b604080515f808252602082018084528a905260ff891692820192909252606081018790526080810186905260019060a0016020604051602081039080840390855afa158015613d0f573d5f803e3d5ffd5b50506040517fffffffffffffffffffffffffffffffffffffffffffffffffffffffffffffffe0015191505073ffffffffffffffffffffffffffffffffffffffff8116613d6557505f925060019150829050613d6e565b92505f91508190505b9450945094915050565b5f80608083901c15613d8c57608092831c92015b604083901c15613d9e57604092831c92015b602083901c15613db057602092831c92015b601083901c15613dc257601092831c92015b600883901c15613dd457600892831c92015b600483901c15613de657600492831c92015b600283901c15613df857600292831c92015b600183901c15610c0a5760010192915050565b5f818310613e195781611a72565b5090919050565b5f613e2e6002848418614e66565b611a7290848416614cf7565b60605f613e4683613e77565b6040805160208082528183019092529192505f91906020820181803683375050509182525060208101929092525090565b5f60ff8216601f811115610c0a576040517fb3512b0c00000000000000000000000000000000000000000000000000000000815260040160405180910390fd5b5f60208284031215613ec7575f80fd5b81357fffffffff0000000000000000000000000000000000000000000000000000000081168114611a72575f80fd5b5f60208284031215613f06575f80fd5b5035919050565b5f5b83811015613f27578181015183820152602001613f0f565b50505f910152565b5f8151808452613f46816020860160208601613f0d565b601f017fffffffffffffffffffffffffffffffffffffffffffffffffffffffffffffffe0169290920160200192915050565b602081525f611a726020830184613f2f565b73ffffffffffffffffffffffffffffffffffffffff81168114610c21575f80fd5b7f4e487b71000000000000000000000000000000000000000000000000000000005f52604160045260245ffd5b604051601f82017fffffffffffffffffffffffffffffffffffffffffffffffffffffffffffffffe016810167ffffffffffffffff8111828210171561401f5761401f613fab565b604052919050565b5f67ffffffffffffffff82111561404057614040613fab565b50601f017fffffffffffffffffffffffffffffffffffffffffffffffffffffffffffffffe01660200190565b5f61407e61407984614027565b613fd8565b9050828152838383011115614091575f80fd5b828260208301375f602084830101529392505050565b5f82601f8301126140b6575f80fd5b611a728383356020850161406c565b5f805f80608085870312156140d8575f80fd5b84356140e381613f8a565b935060208501356140f381613f8a565b925060408501359150606085013567ffffffffffffffff811115614115575f80fd5b614121878288016140a7565b91505092959194509250565b5f67ffffffffffffffff82111561414657614146613fab565b5060051b60200190565b5f82601f83011261415f575f80fd5b8135602061416f6140798361412d565b82815260059290921b8401810191818101908684111561418d575f80fd5b8286015b848110156141b15780356141a481613f8a565b8352918301918301614191565b509695505050505050565b5f82601f8301126141cb575f80fd5b813560206141db6140798361412d565b82815260059290921b840181019181810190868411156141f9575f80fd5b8286015b848110156141b157803583529183019183016141fd565b5f82601f830112614223575f80fd5b813560206142336140798361412d565b82815260059290921b84018101918181019086841115614251575f80fd5b8286015b848110156141b157803567ffffffffffffffff811115614274575f8081fd5b6142828986838b01016140a7565b845250918301918301614255565b5f805f80608085870312156142a3575f80fd5b843567ffffffffffffffff808211156142ba575f80fd5b6142c688838901614150565b955060208701359150808211156142db575f80fd5b6142e7888389016141bc565b945060408701359150808211156142fc575f80fd5b5061430987828801614214565b949793965093946060013593505050565b7f4e487b71000000000000000000000000000000000000000000000000000000005f52602160045260245ffd5b6008811061437c577f4e487b71000000000000000000000000000000000000000000000000000000005f52602160045260245ffd5b9052565b60208101610c0a8284614347565b5f806040838503121561439f575f80fd5b8235915060208301356143b181613f8a565b809150509250929050565b803560ff811681146111bc575f80fd5b5f80604083850312156143dd575f80fd5b823591506143ed602084016143bc565b90509250929050565b5f8083601f840112614406575f80fd5b50813567ffffffffffffffff81111561441d575f80fd5b602083019150836020828501011115614434575f80fd5b9250929050565b5f805f805f805f60c0888a031215614451575f80fd5b87359650614461602089016143bc565b9550604088013561447181613f8a565b9450606088013567ffffffffffffffff8082111561448d575f80fd5b6144998b838c016143f6565b909650945060808a01359150808211156144b1575f80fd5b6144bd8b838c016140a7565b935060a08a01359150808211156144d2575f80fd5b506144df8a828b016140a7565b91505092959891949750929550565b5f805f805f60808688031215614502575f80fd5b85359450614512602087016143bc565b9350604086013567ffffffffffffffff8082111561452e575f80fd5b61453a89838a016143f6565b90955093506060880135915080821115614552575f80fd5b5061455f888289016140a7565b9150509295509295909350565b65ffffffffffff81168114610c21575f80fd5b5f6020828403121561458f575f80fd5b8135611a728161456c565b5f805f80606085870312156145ad575f80fd5b843593506145bd602086016143bc565b9250604085013567ffffffffffffffff8111156145d8575f80fd5b6145e4878288016143f6565b95989497509550505050565b5f805f8060808587031215614603575f80fd5b843567ffffffffffffffff8082111561461a575f80fd5b61462688838901614150565b9550602087013591508082111561463b575f80fd5b614647888389016141bc565b9450604087013591508082111561465c575f80fd5b61466888838901614214565b9350606087013591508082111561467d575f80fd5b508501601f8101871361468e575f80fd5b6141218782356020840161406c565b5f602082840312156146ad575f80fd5b8135611a7281613f8a565b5f8151808452602080850194508084015f5b838110156146e6578151875295820195908201906001016146ca565b509495945050505050565b7fff000000000000000000000000000000000000000000000000000000000000008816815260e060208201525f61472b60e0830189613f2f565b828103604084015261473d8189613f2f565b905086606084015273ffffffffffffffffffffffffffffffffffffffff861660808401528460a084015282810360c084015261477981856146b8565b9a9950505050505050505050565b5f805f806080858703121561479a575f80fd5b843593506147aa602086016143bc565b925060408501356147ba81613f8a565b9150606085013567ffffffffffffffff811115614115575f80fd5b5f805f606084860312156147e7575f80fd5b83356147f281613f8a565b925060208401359150604084013567ffffffffffffffff811115614814575f80fd5b614820868287016140a7565b9150509250925092565b5f805f805f60a0868803121561483e575f80fd5b853561484981613f8a565b9450602086013561485981613f8a565b9350604086013567ffffffffffffffff80821115614875575f80fd5b61488189838a016141bc565b94506060880135915080821115614896575f80fd5b6148a289838a016141bc565b93506080880135915080821115614552575f80fd5b5f805f80606085870312156148ca575f80fd5b84356148d581613f8a565b935060208501359250604085013567ffffffffffffffff8111156145d8575f80fd5b5f60208284031215614907575f80fd5b813563ffffffff81168114611a72575f80fd5b5f806040838503121561492b575f80fd5b823561493681613f8a565b946020939093013593505050565b5f805f805f60a08688031215614958575f80fd5b853561496381613f8a565b9450602086013561497381613f8a565b93506040860135925060608601359150608086013567ffffffffffffffff81111561499c575f80fd5b61455f888289016140a7565b600181811c908216806149bc57607f821691505b6020821081036149f3577f4e487b71000000000000000000000000000000000000000000000000000000005f52602260045260245ffd5b50919050565b7f4e487b71000000000000000000000000000000000000000000000000000000005f52603260045260245ffd5b7f4e487b71000000000000000000000000000000000000000000000000000000005f52601160045260245ffd5b5f7fffffffffffffffffffffffffffffffffffffffffffffffffffffffffffffffff8203614a8357614a83614a26565b5060010190565b5f60208284031215614a9a575f80fd5b815167ffffffffffffffff811115614ab0575f80fd5b8201601f81018413614ac0575f80fd5b8051614ace61407982614027565b818152856020838501011115614ae2575f80fd5b611f51826020830160208601613f0d565b818382375f9101908152919050565b81810381811115610c0a57610c0a614a26565b65ffffffffffff828116828216039080821115614b3457614b34614a26565b5092915050565b5f60208284031215614b4b575f80fd5b8151611a728161456c565b65ffffffffffff818116838216019080821115614b3457614b34614a26565b5f8151808452602080850194508084015f5b838110156146e657815173ffffffffffffffffffffffffffffffffffffffff1687529582019590820190600101614b87565b5f81518084526020808501808196508360051b810191508286015f5b85811015614bff578284038952614bed848351613f2f565b98850198935090840190600101614bd5565b5091979650505050505050565b608081525f614c1e6080830187614b75565b8281036020840152614c3081876146b8565b90508281036040840152614c448186614bb9565b91505082606083015295945050505050565b83815260608101614c6a6020830185614347565b826040830152949350505050565b5f60208284031215614c88575f80fd5b81518015158114611a72575f80fd5b84815260ff84166020820152826040820152608060608201525f6110cc6080830184613f2f565b85815260ff8516602082015283604082015260a060608201525f614ce560a0830185613f2f565b82810360808401526115f08185613f2f565b80820180821115610c0a57610c0a614a26565b5f6101208b8352602073ffffffffffffffffffffffffffffffffffffffff8c1681850152816040850152614d408285018c614b75565b91508382036060850152614d54828b6146b8565b915083820360808501528189518084528284019150828160051b850101838c015f5b83811015614dc2577fffffffffffffffffffffffffffffffffffffffffffffffffffffffffffffffe0878403018552614db0838351613f2f565b94860194925090850190600101614d76565b505086810360a0880152614dd6818c614bb9565b9450505050508560c08401528460e0840152828103610100840152614dfb8185613f2f565b9c9b505050505050505050505050565b5f60208284031215614e1b575f80fd5b5051919050565b8082028115828204841417610c0a57610c0a614a26565b7f4e487b71000000000000000000000000000000000000000000000000000000005f52601260045260245ffd5b5f82614e99577f4e487b71000000000000000000000000000000000000000000000000000000005f52601260045260245ffd5b500490565b60a081525f614eb060a0830188614b75565b8281036020840152614ec281886146b8565b90508281036040840152614ed68187614bb9565b60608401959095525050608001529392505050565b60c081525f614efd60c0830189614b75565b8281036020840152614f0f81896146b8565b90508281036040840152614f238188614bb9565b60608401969096525050608081019290925260a0909101529392505050565b828152604060208201525f6111e06040830184613f2f565b5f8251614f6b818460208701613f0d565b9190910192915050565b60ff8181168382160190811115610c0a57610c0a614a26565b600181815b80851115614fe757817fffffffffffffffffffffffffffffffffffffffffffffffffffffffffffffffff04821115614fcd57614fcd614a26565b80851615614fda57918102915b93841c9390800290614f93565b509250929050565b5f82614ffd57506001610c0a565b8161500957505f610c0a565b816001811461501f576002811461502957615045565b6001915050610c0a565b60ff84111561503a5761503a614a26565b50506001821b610c0a565b5060208310610133831016604e8410600b8410161715615068575081810a610c0a565b6150728383614f8e565b807fffffffffffffffffffffffffffffffffffffffffffffffffffffffffffffffff048211156150a4576150a4614a26565b029392505050565b5f611a7260ff841683614fef56fea26469706673582212203b3e4648b0b6a70c0e521d5f88a0c5b0e1707d546b1bd53285c83675c01a477564736f6c63430008150033","linkReferences":{}},"methodIdentifiers":{"BALLOT_TYPEHASH()":"deaaa7cc","CLOCK_MODE()":"4bf5d7e9","COUNTING_MODE()":"dd4e2ba5","EXTENDED_BALLOT_TYPEHASH()":"2fe3e261","cancel(address[],uint256[],bytes[],bytes32)":"452115d6","castVote(uint256,uint8)":"56781388","castVoteBySig(uint256,uint8,address,bytes)":"8ff262e3","castVoteWithReason(uint256,uint8,string)":"7b3c71d3","castVoteWithReasonAndParams(uint256,uint8,string,bytes)":"5f398a14","castVoteWithReasonAndParamsBySig(uint256,uint8,address,string,bytes,bytes)":"5b8d0e0d","clock()":"91ddadf4","eip712Domain()":"84b0196e","execute(address[],uint256[],bytes[],bytes32)":"2656227d","getVotes(address,uint256)":"eb9019d4","getVotesWithParams(address,uint256,bytes)":"9a802a6d","hasVoted(uint256,address)":"43859632","hashProposal(address[],uint256[],bytes[],bytes32)":"c59057e4","name()":"06fdde03","nonces(address)":"7ecebe00","onERC1155BatchReceived(address,address,uint256[],uint256[],bytes)":"bc197c81","onERC1155Received(address,address,uint256,uint256,bytes)":"f23a6e61","onERC721Received(address,address,uint256,bytes)":"150b7a02","proposalDeadline(uint256)":"c01f9e37","proposalEta(uint256)":"ab58fb8e","proposalNeedsQueuing(uint256)":"a9a95294","proposalProposer(uint256)":"143489d0","proposalSnapshot(uint256)":"2d63f693","proposalThreshold()":"b58131b0","proposalVotes(uint256)":"544ffc9c","propose(address[],uint256[],bytes[],string)":"7d5e81e2","queue(address[],uint256[],bytes[],bytes32)":"160cbed7","quorum(uint256)":"f8ce560a","quorumDenominator()":"97c3d334","quorumNumerator()":"a7713a70","quorumNumerator(uint256)":"60c4247f","relay(address,uint256,bytes)":"c28bc2fa","setProposalThreshold(uint256)":"ece40cc1","setVotingDelay(uint48)":"79051887","setVotingPeriod(uint32)":"e540d01d","state(uint256)":"3e4f49e6","supportsInterface(bytes4)":"01ffc9a7","timelock()":"d33219b4","token()":"fc0c546a","updateQuorumNumerator(uint256)":"06f3f9e6","updateTimelock(address)":"a890c910","version()":"54fd4d50","votingDelay()":"3932abb1","votingPeriod()":"02a251a3"},"id":22}