{"abi":[{"type":"function","name":"implementation","inputs":[],"outputs":[{"name":"","type":"address","internalType":"address"}],"stateMutability":"view"},{"type":"function","name":"setDummyImplementation","inputs":[{"name":"_implementation","type":"address","internalType":"address"}],"outputs":[],"stateMutability":"nonpayable"},{"type":"event","name":"Upgraded","inputs":[{"name":"implementation","type":"address","indexed":true,"internalType":"address"}],"anonymous":false}],"bytecode":{"object":"0x608060405234801561000f575f80fd5b506102a88061001d5f395ff3fe608060405234801561000f575f80fd5b5060043610610034575f3560e01c80635c60da1b14610038578063c39aa07d14610069575b5f80fd5b61004061007e565b60405173ffffffffffffffffffffffffffffffffffffffff909116815260200160405180910390f35b61007c610077366004610238565b6100c2565b005b5f6100bd7f360894a13ba1a3210667c828492db98dca3e2076cc3735a920a3ca505d382bbc5473ffffffffffffffffffffffffffffffffffffffff1690565b905090565b6100ca6100d6565b6100d3816101ab565b50565b7fc8fcad8db84d3cc18b4c41d551ea0ee66dd599cde068d998e57d5e09332c131c6003015462010000900473ffffffffffffffffffffffffffffffffffffffff1633146101a9576040517f08c379a000000000000000000000000000000000000000000000000000000000815260206004820152602260248201527f4c69624469616d6f6e643a204d75737420626520636f6e7472616374206f776e60448201527f6572000000000000000000000000000000000000000000000000000000000000606482015260840160405180910390fd5b565b7f360894a13ba1a3210667c828492db98dca3e2076cc3735a920a3ca505d382bbc80547fffffffffffffffffffffffff00000000000000000000000000000000000000001673ffffffffffffffffffffffffffffffffffffffff83169081179091556040517fbc7cd75a20ee27fd9adebab32041f755214dbc6bffa90cc0225b39da2e5c2d3b905f90a250565b5f60208284031215610248575f80fd5b813573ffffffffffffffffffffffffffffffffffffffff8116811461026b575f80fd5b939250505056fea2646970667358221220b8d16391e4b8ab7f8b3595440cc483f11f8c93ea57b91fe951fd24ea8660bbd464736f6c63430008150033","linkReferences":{}},"methodIdentifiers":{"implementation()":"5c60da1b","setDummyImplementation(address)":"c39aa07d"},"id":8}