{"abi":[{"type":"function","name":"_cancelAsk","inputs":[{"name":"asset","type":"address","internalType":"address"},{"name":"id","type":"uint16","internalType":"uint16"}],"outputs":[],"stateMutability":"nonpayable"},{"type":"function","name":"_cancelShort","inputs":[{"name":"asset","type":"address","internalType":"address"},{"name":"id","type":"uint16","internalType":"uint16"}],"outputs":[],"stateMutability":"nonpayable"},{"type":"function","name":"admin","inputs":[],"outputs":[{"name":"","type":"address","internalType":"address"}],"stateMutability":"view"},{"type":"function","name":"approve","inputs":[{"name":"to","type":"address","internalType":"address"},{"name":"tokenId","type":"uint256","internalType":"uint256"}],"outputs":[],"stateMutability":"nonpayable"},{"type":"function","name":"balanceOf","inputs":[{"name":"_owner","type":"address","internalType":"address"}],"outputs":[{"name":"balance","type":"uint256","internalType":"uint256"}],"stateMutability":"view"},{"type":"function","name":"cancelAsk","inputs":[{"name":"asset","type":"address","internalType":"address"},{"name":"id","type":"uint16","internalType":"uint16"}],"outputs":[],"stateMutability":"nonpayable"},{"type":"function","name":"cancelBid","inputs":[{"name":"asset","type":"address","internalType":"address"},{"name":"id","type":"uint16","internalType":"uint16"}],"outputs":[],"stateMutability":"nonpayable"},{"type":"function","name":"cancelOrderFarFromOracle","inputs":[{"name":"asset","type":"address","internalType":"address"},{"name":"orderType","type":"uint8","internalType":"uint8"},{"name":"lastOrderId","type":"uint16","internalType":"uint16"},{"name":"numOrdersToCancel","type":"uint16","internalType":"uint16"}],"outputs":[],"stateMutability":"nonpayable"},{"type":"function","name":"cancelShort","inputs":[{"name":"asset","type":"address","internalType":"address"},{"name":"id","type":"uint16","internalType":"uint16"}],"outputs":[],"stateMutability":"nonpayable"},{"type":"function","name":"claimDittoMatchedReward","inputs":[{"name":"vault","type":"uint256","internalType":"uint256"}],"outputs":[],"stateMutability":"nonpayable"},{"type":"function","name":"claimOwnership","inputs":[],"outputs":[],"stateMutability":"nonpayable"},{"type":"function","name":"combineShorts","inputs":[{"name":"asset","type":"address","internalType":"address"},{"name":"ids","type":"uint8[]","internalType":"uint8[]"}],"outputs":[],"stateMutability":"nonpayable"},{"type":"function","name":"createAsk","inputs":[{"name":"asset","type":"address","internalType":"address"},{"name":"price","type":"uint80","internalType":"uint80"},{"name":"ercAmount","type":"uint88","internalType":"uint88"},{"name":"isMarketOrder","type":"bool","internalType":"bool"},{"name":"orderHintArray","type":"tuple[]","internalType":"struct EtherscanDiamondImpl.OrderHint[]","components":[{"name":"hintId","type":"uint16","internalType":"uint16"},{"name":"creationTime","type":"uint256","internalType":"uint256"}]}],"outputs":[],"stateMutability":"nonpayable"},{"type":"function","name":"createBid","inputs":[{"name":"asset","type":"address","internalType":"address"},{"name":"price","type":"uint80","internalType":"uint80"},{"name":"ercAmount","type":"uint88","internalType":"uint88"},{"name":"isMarketOrder","type":"bool","internalType":"bool"},{"name":"orderHintArray","type":"tuple[]","internalType":"struct EtherscanDiamondImpl.OrderHint[]","components":[{"name":"hintId","type":"uint16","internalType":"uint16"},{"name":"creationTime","type":"uint256","internalType":"uint256"}]},{"name":"shortHintArray","type":"uint16[]","internalType":"uint16[]"}],"outputs":[{"name":"ethFilled","type":"uint88","internalType":"uint88"},{"name":"ercAmountLeft","type":"uint88","internalType":"uint88"}],"stateMutability":"nonpayable"},{"type":"function","name":"createBridge","inputs":[{"name":"bridge","type":"address","internalType":"address"},{"name":"vault","type":"uint256","internalType":"uint256"},{"name":"withdrawalFee","type":"uint16","internalType":"uint16"},{"name":"unstakeFee","type":"uint8","internalType":"uint8"}],"outputs":[],"stateMutability":"nonpayable"},{"type":"function","name":"createForcedBid","inputs":[{"name":"sender","type":"address","internalType":"address"},{"name":"asset","type":"address","internalType":"address"},{"name":"price","type":"uint80","internalType":"uint80"},{"name":"ercAmount","type":"uint88","internalType":"uint88"},{"name":"shortHintArray","type":"uint16[]","internalType":"uint16[]"}],"outputs":[{"name":"ethFilled","type":"uint88","internalType":"uint88"},{"name":"ercAmountLeft","type":"uint88","internalType":"uint88"}],"stateMutability":"nonpayable"},{"type":"function","name":"createLimitShort","inputs":[{"name":"asset","type":"address","internalType":"address"},{"name":"price","type":"uint80","internalType":"uint80"},{"name":"ercAmount","type":"uint88","internalType":"uint88"},{"name":"orderHintArray","type":"tuple[]","internalType":"struct EtherscanDiamondImpl.OrderHint[]","components":[{"name":"hintId","type":"uint16","internalType":"uint16"},{"name":"creationTime","type":"uint256","internalType":"uint256"}]},{"name":"shortHintArray","type":"uint16[]","internalType":"uint16[]"},{"name":"initialCR","type":"uint16","internalType":"uint16"}],"outputs":[],"stateMutability":"nonpayable"},{"type":"function","name":"createMarket","inputs":[{"name":"asset","type":"address","internalType":"address"},{"name":"a","type":"tuple","internalType":"struct STypes.Asset","components":[{"name":"ercDebt","type":"uint104","internalType":"uint104"},{"name":"dethCollateral","type":"uint88","internalType":"uint88"},{"name":"startingShortId","type":"uint16","internalType":"uint16"},{"name":"orderIdCounter","type":"uint16","internalType":"uint16"},{"name":"initialCR","type":"uint16","internalType":"uint16"},{"name":"frozen","type":"uint8","internalType":"enum F"},{"name":"vault","type":"uint8","internalType":"uint8"},{"name":"minBidEth","type":"uint8","internalType":"uint8"},{"name":"minAskEth","type":"uint8","internalType":"uint8"},{"name":"minShortErc","type":"uint16","internalType":"uint16"},{"name":"minimumCR","type":"uint8","internalType":"uint8"},{"name":"tappFeePct","type":"uint8","internalType":"uint8"},{"name":"callerFeePct","type":"uint8","internalType":"uint8"},{"name":"forcedBidPriceBuffer","type":"uint8","internalType":"uint8"},{"name":"assetId","type":"uint8","internalType":"uint8"},{"name":"ercDebtRate","type":"uint64","internalType":"uint64"},{"name":"primaryLiquidationCR","type":"uint16","internalType":"uint16"},{"name":"secondaryLiquidationCR","type":"uint16","internalType":"uint16"},{"name":"resetLiquidationTime","type":"uint8","internalType":"uint8"},{"name":"secondLiquidationTime","type":"uint8","internalType":"uint8"},{"name":"firstLiquidationTime","type":"uint8","internalType":"uint8"},{"name":"filler","type":"uint64","internalType":"uint64"},{"name":"oracle","type":"address","internalType":"address"}]}],"outputs":[],"stateMutability":"nonpayable"},{"type":"function","name":"createVault","inputs":[{"name":"deth","type":"address","internalType":"address"},{"name":"vault","type":"uint256","internalType":"uint256"},{"name":"params","type":"tuple","internalType":"struct MTypes.CreateVaultParams","components":[{"name":"dethTithePercent","type":"uint16","internalType":"uint16"},{"name":"dittoMatchedRate","type":"uint16","internalType":"uint16"},{"name":"dittoShorterRate","type":"uint16","internalType":"uint16"}]}],"outputs":[],"stateMutability":"nonpayable"},{"type":"function","name":"decreaseCollateral","inputs":[{"name":"asset","type":"address","internalType":"address"},{"name":"id","type":"uint8","internalType":"uint8"},{"name":"amount","type":"uint88","internalType":"uint88"}],"outputs":[],"stateMutability":"nonpayable"},{"type":"function","name":"deposit","inputs":[{"name":"bridge","type":"address","internalType":"address"},{"name":"amount","type":"uint88","internalType":"uint88"}],"outputs":[],"stateMutability":"nonpayable"},{"type":"function","name":"depositAsset","inputs":[{"name":"asset","type":"address","internalType":"address"},{"name":"amount","type":"uint104","internalType":"uint104"}],"outputs":[],"stateMutability":"nonpayable"},{"type":"function","name":"depositEth","inputs":[{"name":"bridge","type":"address","internalType":"address"}],"outputs":[],"stateMutability":"payable"},{"type":"function","name":"diamondCut","inputs":[{"name":"_diamondCut","type":"tuple[]","internalType":"struct EtherscanDiamondImpl.FacetCut[]","components":[{"name":"facetAddress","type":"address","internalType":"address"},{"name":"action","type":"uint8","internalType":"uint8"},{"name":"functionSelectors","type":"bytes4[]","internalType":"bytes4[]"}]},{"name":"_init","type":"address","internalType":"address"},{"name":"_calldata","type":"bytes","internalType":"bytes"}],"outputs":[],"stateMutability":"nonpayable"},{"type":"function","name":"distributeYield","inputs":[{"name":"assets","type":"address[]","internalType":"address[]"}],"outputs":[],"stateMutability":"nonpayable"},{"type":"function","name":"estimateWETHInUSDC","inputs":[{"name":"amountIn","type":"uint128","internalType":"uint128"},{"name":"secondsAgo","type":"uint32","internalType":"uint32"}],"outputs":[{"name":"amountOut","type":"uint256","internalType":"uint256"}],"stateMutability":"view"},{"type":"function","name":"exitShort","inputs":[{"name":"asset","type":"address","internalType":"address"},{"name":"id","type":"uint8","internalType":"uint8"},{"name":"buyBackAmount","type":"uint88","internalType":"uint88"},{"name":"price","type":"uint80","internalType":"uint80"},{"name":"shortHintArray","type":"uint16[]","internalType":"uint16[]"}],"outputs":[],"stateMutability":"nonpayable"},{"type":"function","name":"exitShortErcEscrowed","inputs":[{"name":"asset","type":"address","internalType":"address"},{"name":"id","type":"uint8","internalType":"uint8"},{"name":"buyBackAmount","type":"uint88","internalType":"uint88"}],"outputs":[],"stateMutability":"nonpayable"},{"type":"function","name":"exitShortWallet","inputs":[{"name":"asset","type":"address","internalType":"address"},{"name":"id","type":"uint8","internalType":"uint8"},{"name":"buyBackAmount","type":"uint88","internalType":"uint88"}],"outputs":[],"stateMutability":"nonpayable"},{"type":"function","name":"facetAddress","inputs":[{"name":"_functionSelector","type":"bytes4","internalType":"bytes4"}],"outputs":[{"name":"facetAddress_","type":"address","internalType":"address"}],"stateMutability":"view"},{"type":"function","name":"facetAddresses","inputs":[],"outputs":[{"name":"facetAddresses_","type":"address[]","internalType":"address[]"}],"stateMutability":"view"},{"type":"function","name":"facetFunctionSelectors","inputs":[{"name":"_facet","type":"address","internalType":"address"}],"outputs":[{"name":"_facetFunctionSelectors","type":"bytes4[]","internalType":"bytes4[]"}],"stateMutability":"view"},{"type":"function","name":"facets","inputs":[],"outputs":[{"name":"facets_","type":"tuple[]","internalType":"struct EtherscanDiamondImpl.Facet[]","components":[{"name":"facetAddress","type":"address","internalType":"address"},{"name":"functionSelectors","type":"bytes4[]","internalType":"bytes4[]"}]}],"stateMutability":"view"},{"type":"function","name":"flagShort","inputs":[{"name":"asset","type":"address","internalType":"address"},{"name":"shorter","type":"address","internalType":"address"},{"name":"id","type":"uint8","internalType":"uint8"},{"name":"flaggerHint","type":"uint16","internalType":"uint16"}],"outputs":[],"stateMutability":"nonpayable"},{"type":"function","name":"getApproved","inputs":[{"name":"tokenId","type":"uint256","internalType":"uint256"}],"outputs":[{"name":"operator","type":"address","internalType":"address"}],"stateMutability":"view"},{"type":"function","name":"getAskHintId","inputs":[{"name":"asset","type":"address","internalType":"address"},{"name":"price","type":"uint256","internalType":"uint256"}],"outputs":[{"name":"hintId","type":"uint16","internalType":"uint16"}],"stateMutability":"view"},{"type":"function","name":"getAsks","inputs":[{"name":"asset","type":"address","internalType":"address"}],"outputs":[{"name":"","type":"tuple[]","internalType":"struct EtherscanDiamondImpl.Order[]","components":[{"name":"ercAmount","type":"uint88","internalType":"uint88"},{"name":"price","type":"uint80","internalType":"uint80"},{"name":"prevId","type":"uint16","internalType":"uint16"},{"name":"id","type":"uint16","internalType":"uint16"},{"name":"nextId","type":"uint16","internalType":"uint16"},{"name":"orderType","type":"uint8","internalType":"uint8"},{"name":"creationTime","type":"uint32","internalType":"uint32"},{"name":"addr","type":"address","internalType":"address"},{"name":"prevOrderType","type":"uint8","internalType":"uint8"},{"name":"initialCR","type":"uint16","internalType":"uint16"},{"name":"shortRecordId","type":"uint8","internalType":"uint8"},{"name":"filler","type":"uint64","internalType":"uint64"}]}],"stateMutability":"view"},{"type":"function","name":"getAssetBalance","inputs":[{"name":"asset","type":"address","internalType":"address"},{"name":"user","type":"address","internalType":"address"}],"outputs":[{"name":"","type":"uint256","internalType":"uint256"}],"stateMutability":"view"},{"type":"function","name":"getAssetCollateralRatio","inputs":[{"name":"asset","type":"address","internalType":"address"}],"outputs":[{"name":"cRatio","type":"uint256","internalType":"uint256"}],"stateMutability":"view"},{"type":"function","name":"getAssetStruct","inputs":[{"name":"asset","type":"address","internalType":"address"}],"outputs":[{"name":"","type":"tuple","internalType":"struct STypes.Asset","components":[{"name":"ercDebt","type":"uint104","internalType":"uint104"},{"name":"dethCollateral","type":"uint88","internalType":"uint88"},{"name":"startingShortId","type":"uint16","internalType":"uint16"},{"name":"orderIdCounter","type":"uint16","internalType":"uint16"},{"name":"initialCR","type":"uint16","internalType":"uint16"},{"name":"frozen","type":"uint8","internalType":"enum F"},{"name":"vault","type":"uint8","internalType":"uint8"},{"name":"minBidEth","type":"uint8","internalType":"uint8"},{"name":"minAskEth","type":"uint8","internalType":"uint8"},{"name":"minShortErc","type":"uint16","internalType":"uint16"},{"name":"minimumCR","type":"uint8","internalType":"uint8"},{"name":"tappFeePct","type":"uint8","internalType":"uint8"},{"name":"callerFeePct","type":"uint8","internalType":"uint8"},{"name":"forcedBidPriceBuffer","type":"uint8","internalType":"uint8"},{"name":"assetId","type":"uint8","internalType":"uint8"},{"name":"ercDebtRate","type":"uint64","internalType":"uint64"},{"name":"primaryLiquidationCR","type":"uint16","internalType":"uint16"},{"name":"secondaryLiquidationCR","type":"uint16","internalType":"uint16"},{"name":"resetLiquidationTime","type":"uint8","internalType":"uint8"},{"name":"secondLiquidationTime","type":"uint8","internalType":"uint8"},{"name":"firstLiquidationTime","type":"uint8","internalType":"uint8"},{"name":"filler","type":"uint64","internalType":"uint64"},{"name":"oracle","type":"address","internalType":"address"}]}],"stateMutability":"view"},{"type":"function","name":"getAssetUserStruct","inputs":[{"name":"asset","type":"address","internalType":"address"},{"name":"user","type":"address","internalType":"address"}],"outputs":[{"name":"","type":"tuple","internalType":"struct EtherscanDiamondImpl.AssetUser","components":[{"name":"ercEscrowed","type":"uint104","internalType":"uint104"},{"name":"g_flaggerId","type":"uint24","internalType":"uint24"},{"name":"g_flaggedAt","type":"uint32","internalType":"uint32"},{"name":"shortRecordIdCounter","type":"uint8","internalType":"uint8"},{"name":"filler","type":"uint96","internalType":"uint96"}]}],"stateMutability":"view"},{"type":"function","name":"getBidHintId","inputs":[{"name":"asset","type":"address","internalType":"address"},{"name":"price","type":"uint256","internalType":"uint256"}],"outputs":[{"name":"hintId","type":"uint16","internalType":"uint16"}],"stateMutability":"view"},{"type":"function","name":"getBids","inputs":[{"name":"asset","type":"address","internalType":"address"}],"outputs":[{"name":"","type":"tuple[]","internalType":"struct EtherscanDiamondImpl.Order[]","components":[{"name":"ercAmount","type":"uint88","internalType":"uint88"},{"name":"price","type":"uint80","internalType":"uint80"},{"name":"prevId","type":"uint16","internalType":"uint16"},{"name":"id","type":"uint16","internalType":"uint16"},{"name":"nextId","type":"uint16","internalType":"uint16"},{"name":"orderType","type":"uint8","internalType":"uint8"},{"name":"creationTime","type":"uint32","internalType":"uint32"},{"name":"addr","type":"address","internalType":"address"},{"name":"prevOrderType","type":"uint8","internalType":"uint8"},{"name":"initialCR","type":"uint16","internalType":"uint16"},{"name":"shortRecordId","type":"uint8","internalType":"uint8"},{"name":"filler","type":"uint64","internalType":"uint64"}]}],"stateMutability":"view"},{"type":"function","name":"getBridgeStruct","inputs":[{"name":"bridge","type":"address","internalType":"address"}],"outputs":[{"name":"","type":"tuple","internalType":"struct EtherscanDiamondImpl.Bridge","components":[{"name":"vault","type":"uint8","internalType":"uint8"},{"name":"withdrawalFee","type":"uint16","internalType":"uint16"},{"name":"unstakeFee","type":"uint8","internalType":"uint8"}]}],"stateMutability":"view"},{"type":"function","name":"getBridgeVault","inputs":[{"name":"bridge","type":"address","internalType":"address"}],"outputs":[{"name":"","type":"uint256","internalType":"uint256"}],"stateMutability":"view"},{"type":"function","name":"getBridges","inputs":[{"name":"vault","type":"uint256","internalType":"uint256"}],"outputs":[{"name":"","type":"address[]","internalType":"address[]"}],"stateMutability":"view"},{"type":"function","name":"getCollateralRatio","inputs":[{"name":"asset","type":"address","internalType":"address"},{"name":"short","type":"tuple","internalType":"struct EtherscanDiamondImpl.ShortRecord","components":[{"name":"collateral","type":"uint88","internalType":"uint88"},{"name":"ercDebt","type":"uint88","internalType":"uint88"},{"name":"dethYieldRate","type":"uint80","internalType":"uint80"},{"name":"status","type":"uint8","internalType":"uint8"},{"name":"prevId","type":"uint8","internalType":"uint8"},{"name":"id","type":"uint8","internalType":"uint8"},{"name":"nextId","type":"uint8","internalType":"uint8"},{"name":"ercDebtRate","type":"uint64","internalType":"uint64"},{"name":"updatedAt","type":"uint32","internalType":"uint32"},{"name":"flaggedAt","type":"uint32","internalType":"uint32"},{"name":"flaggerId","type":"uint24","internalType":"uint24"},{"name":"tokenId","type":"uint40","internalType":"uint40"}]}],"outputs":[{"name":"cRatio","type":"uint256","internalType":"uint256"}],"stateMutability":"view"},{"type":"function","name":"getCollateralRatioSpotPrice","inputs":[{"name":"asset","type":"address","internalType":"address"},{"name":"short","type":"tuple","internalType":"struct EtherscanDiamondImpl.ShortRecord","components":[{"name":"collateral","type":"uint88","internalType":"uint88"},{"name":"ercDebt","type":"uint88","internalType":"uint88"},{"name":"dethYieldRate","type":"uint80","internalType":"uint80"},{"name":"status","type":"uint8","internalType":"uint8"},{"name":"prevId","type":"uint8","internalType":"uint8"},{"name":"id","type":"uint8","internalType":"uint8"},{"name":"nextId","type":"uint8","internalType":"uint8"},{"name":"ercDebtRate","type":"uint64","internalType":"uint64"},{"name":"updatedAt","type":"uint32","internalType":"uint32"},{"name":"flaggedAt","type":"uint32","internalType":"uint32"},{"name":"flaggerId","type":"uint24","internalType":"uint24"},{"name":"tokenId","type":"uint40","internalType":"uint40"}]}],"outputs":[{"name":"cRatio","type":"uint256","internalType":"uint256"}],"stateMutability":"view"},{"type":"function","name":"getDethBalance","inputs":[{"name":"vault","type":"uint256","internalType":"uint256"},{"name":"user","type":"address","internalType":"address"}],"outputs":[{"name":"","type":"uint256","internalType":"uint256"}],"stateMutability":"view"},{"type":"function","name":"getDethTotal","inputs":[{"name":"vault","type":"uint256","internalType":"uint256"}],"outputs":[{"name":"","type":"uint256","internalType":"uint256"}],"stateMutability":"view"},{"type":"function","name":"getDethYieldRate","inputs":[{"name":"vault","type":"uint256","internalType":"uint256"}],"outputs":[{"name":"","type":"uint256","internalType":"uint256"}],"stateMutability":"view"},{"type":"function","name":"getDittoMatchedReward","inputs":[{"name":"vault","type":"uint256","internalType":"uint256"},{"name":"user","type":"address","internalType":"address"}],"outputs":[{"name":"","type":"uint256","internalType":"uint256"}],"stateMutability":"view"},{"type":"function","name":"getDittoReward","inputs":[{"name":"vault","type":"uint256","internalType":"uint256"},{"name":"user","type":"address","internalType":"address"}],"outputs":[{"name":"","type":"uint256","internalType":"uint256"}],"stateMutability":"view"},{"type":"function","name":"getFlaggerHint","inputs":[],"outputs":[{"name":"flaggerId","type":"uint24","internalType":"uint24"}],"stateMutability":"view"},{"type":"function","name":"getFlaggerId","inputs":[{"name":"asset","type":"address","internalType":"address"},{"name":"user","type":"address","internalType":"address"}],"outputs":[{"name":"flaggerId","type":"uint24","internalType":"uint24"}],"stateMutability":"view"},{"type":"function","name":"getHintArray","inputs":[{"name":"asset","type":"address","internalType":"address"},{"name":"price","type":"uint256","internalType":"uint256"},{"name":"orderType","type":"uint8","internalType":"uint8"},{"name":"numHints","type":"uint256","internalType":"uint256"}],"outputs":[{"name":"orderHintArray","type":"tuple[]","internalType":"struct EtherscanDiamondImpl.OrderHint[]","components":[{"name":"hintId","type":"uint16","internalType":"uint16"},{"name":"creationTime","type":"uint256","internalType":"uint256"}]}],"stateMutability":"view"},{"type":"function","name":"getOffsetTime","inputs":[],"outputs":[{"name":"","type":"uint256","internalType":"uint256"}],"stateMutability":"view"},{"type":"function","name":"getOracleAssetPrice","inputs":[{"name":"asset","type":"address","internalType":"address"}],"outputs":[{"name":"","type":"uint256","internalType":"uint256"}],"stateMutability":"view"},{"type":"function","name":"getProtocolAssetPrice","inputs":[{"name":"asset","type":"address","internalType":"address"}],"outputs":[{"name":"","type":"uint256","internalType":"uint256"}],"stateMutability":"view"},{"type":"function","name":"getProtocolAssetTime","inputs":[{"name":"asset","type":"address","internalType":"address"}],"outputs":[{"name":"","type":"uint256","internalType":"uint256"}],"stateMutability":"view"},{"type":"function","name":"getShortHintId","inputs":[{"name":"asset","type":"address","internalType":"address"},{"name":"price","type":"uint256","internalType":"uint256"}],"outputs":[{"name":"","type":"uint16","internalType":"uint16"}],"stateMutability":"view"},{"type":"function","name":"getShortIdAtOracle","inputs":[{"name":"asset","type":"address","internalType":"address"}],"outputs":[{"name":"shortHintId","type":"uint16","internalType":"uint16"}],"stateMutability":"view"},{"type":"function","name":"getShortRecord","inputs":[{"name":"asset","type":"address","internalType":"address"},{"name":"shorter","type":"address","internalType":"address"},{"name":"id","type":"uint8","internalType":"uint8"}],"outputs":[{"name":"shortRecord","type":"tuple","internalType":"struct EtherscanDiamondImpl.ShortRecord","components":[{"name":"collateral","type":"uint88","internalType":"uint88"},{"name":"ercDebt","type":"uint88","internalType":"uint88"},{"name":"dethYieldRate","type":"uint80","internalType":"uint80"},{"name":"status","type":"uint8","internalType":"uint8"},{"name":"prevId","type":"uint8","internalType":"uint8"},{"name":"id","type":"uint8","internalType":"uint8"},{"name":"nextId","type":"uint8","internalType":"uint8"},{"name":"ercDebtRate","type":"uint64","internalType":"uint64"},{"name":"updatedAt","type":"uint32","internalType":"uint32"},{"name":"flaggedAt","type":"uint32","internalType":"uint32"},{"name":"flaggerId","type":"uint24","internalType":"uint24"},{"name":"tokenId","type":"uint40","internalType":"uint40"}]}],"stateMutability":"view"},{"type":"function","name":"getShortRecordCount","inputs":[{"name":"asset","type":"address","internalType":"address"},{"name":"shorter","type":"address","internalType":"address"}],"outputs":[{"name":"shortRecordCount","type":"uint256","internalType":"uint256"}],"stateMutability":"view"},{"type":"function","name":"getShortRecords","inputs":[{"name":"asset","type":"address","internalType":"address"},{"name":"shorter","type":"address","internalType":"address"}],"outputs":[{"name":"shorts","type":"tuple[]","internalType":"struct EtherscanDiamondImpl.ShortRecord[]","components":[{"name":"collateral","type":"uint88","internalType":"uint88"},{"name":"ercDebt","type":"uint88","internalType":"uint88"},{"name":"dethYieldRate","type":"uint80","internalType":"uint80"},{"name":"status","type":"uint8","internalType":"uint8"},{"name":"prevId","type":"uint8","internalType":"uint8"},{"name":"id","type":"uint8","internalType":"uint8"},{"name":"nextId","type":"uint8","internalType":"uint8"},{"name":"ercDebtRate","type":"uint64","internalType":"uint64"},{"name":"updatedAt","type":"uint32","internalType":"uint32"},{"name":"flaggedAt","type":"uint32","internalType":"uint32"},{"name":"flaggerId","type":"uint24","internalType":"uint24"},{"name":"tokenId","type":"uint40","internalType":"uint40"}]}],"stateMutability":"view"},{"type":"function","name":"getShorts","inputs":[{"name":"asset","type":"address","internalType":"address"}],"outputs":[{"name":"","type":"tuple[]","internalType":"struct EtherscanDiamondImpl.Order[]","components":[{"name":"ercAmount","type":"uint88","internalType":"uint88"},{"name":"price","type":"uint80","internalType":"uint80"},{"name":"prevId","type":"uint16","internalType":"uint16"},{"name":"id","type":"uint16","internalType":"uint16"},{"name":"nextId","type":"uint16","internalType":"uint16"},{"name":"orderType","type":"uint8","internalType":"uint8"},{"name":"creationTime","type":"uint32","internalType":"uint32"},{"name":"addr","type":"address","internalType":"address"},{"name":"prevOrderType","type":"uint8","internalType":"uint8"},{"name":"initialCR","type":"uint16","internalType":"uint16"},{"name":"shortRecordId","type":"uint8","internalType":"uint8"},{"name":"filler","type":"uint64","internalType":"uint64"}]}],"stateMutability":"view"},{"type":"function","name":"getTithe","inputs":[{"name":"vault","type":"uint256","internalType":"uint256"}],"outputs":[{"name":"","type":"uint256","internalType":"uint256"}],"stateMutability":"view"},{"type":"function","name":"getUndistributedYield","inputs":[{"name":"vault","type":"uint256","internalType":"uint256"}],"outputs":[{"name":"","type":"uint256","internalType":"uint256"}],"stateMutability":"view"},{"type":"function","name":"getVault","inputs":[{"name":"asset","type":"address","internalType":"address"}],"outputs":[{"name":"","type":"uint256","internalType":"uint256"}],"stateMutability":"view"},{"type":"function","name":"getVaultStruct","inputs":[{"name":"vault","type":"uint256","internalType":"uint256"}],"outputs":[{"name":"","type":"tuple","internalType":"struct EtherscanDiamondImpl.Vault","components":[{"name":"dethCollateral","type":"uint88","internalType":"uint88"},{"name":"dethTotal","type":"uint88","internalType":"uint88"},{"name":"dethYieldRate","type":"uint80","internalType":"uint80"},{"name":"dethCollateralReward","type":"uint88","internalType":"uint88"},{"name":"dethTithePercent","type":"uint16","internalType":"uint16"},{"name":"dittoShorterRate","type":"uint16","internalType":"uint16"},{"name":"filler2","type":"uint128","internalType":"uint128"},{"name":"dittoMatchedShares","type":"uint128","internalType":"uint128"},{"name":"dittoMatchedReward","type":"uint96","internalType":"uint96"},{"name":"dittoMatchedRate","type":"uint16","internalType":"uint16"},{"name":"dittoMatchedTime","type":"uint16","internalType":"uint16"}]}],"stateMutability":"view"},{"type":"function","name":"getVaultUserStruct","inputs":[{"name":"vault","type":"uint256","internalType":"uint256"},{"name":"user","type":"address","internalType":"address"}],"outputs":[{"name":"","type":"tuple","internalType":"struct EtherscanDiamondImpl.VaultUser","components":[{"name":"ethEscrowed","type":"uint88","internalType":"uint88"},{"name":"dittoMatchedShares","type":"uint88","internalType":"uint88"},{"name":"dittoReward","type":"uint80","internalType":"uint80"}]}],"stateMutability":"view"},{"type":"function","name":"getYield","inputs":[{"name":"asset","type":"address","internalType":"address"},{"name":"user","type":"address","internalType":"address"}],"outputs":[{"name":"shorterYield","type":"uint256","internalType":"uint256"}],"stateMutability":"view"},{"type":"function","name":"increaseCollateral","inputs":[{"name":"asset","type":"address","internalType":"address"},{"name":"id","type":"uint8","internalType":"uint8"},{"name":"amount","type":"uint88","internalType":"uint88"}],"outputs":[],"stateMutability":"nonpayable"},{"type":"function","name":"isApprovedForAll","inputs":[{"name":"_owner","type":"address","internalType":"address"},{"name":"operator","type":"address","internalType":"address"}],"outputs":[{"name":"","type":"bool","internalType":"bool"}],"stateMutability":"view"},{"type":"function","name":"liquidate","inputs":[{"name":"asset","type":"address","internalType":"address"},{"name":"shorter","type":"address","internalType":"address"},{"name":"id","type":"uint8","internalType":"uint8"},{"name":"shortHintArray","type":"uint16[]","internalType":"uint16[]"}],"outputs":[{"name":"","type":"uint88","internalType":"uint88"},{"name":"","type":"uint88","internalType":"uint88"}],"stateMutability":"nonpayable"},{"type":"function","name":"liquidateSecondary","inputs":[{"name":"asset","type":"address","internalType":"address"},{"name":"batches","type":"tuple[]","internalType":"struct EtherscanDiamondImpl.BatchLiquidation[]","components":[{"name":"shorter","type":"address","internalType":"address"},{"name":"shortId","type":"uint8","internalType":"uint8"}]},{"name":"liquidateAmount","type":"uint88","internalType":"uint88"},{"name":"isWallet","type":"bool","internalType":"bool"}],"outputs":[],"stateMutability":"nonpayable"},{"type":"function","name":"mintNFT","inputs":[{"name":"asset","type":"address","internalType":"address"},{"name":"shortRecordId","type":"uint8","internalType":"uint8"}],"outputs":[],"stateMutability":"nonpayable"},{"type":"function","name":"owner","inputs":[],"outputs":[{"name":"","type":"address","internalType":"address"}],"stateMutability":"view"},{"type":"function","name":"ownerCandidate","inputs":[],"outputs":[{"name":"","type":"address","internalType":"address"}],"stateMutability":"view"},{"type":"function","name":"ownerOf","inputs":[{"name":"tokenId","type":"uint256","internalType":"uint256"}],"outputs":[{"name":"","type":"address","internalType":"address"}],"stateMutability":"view"},{"type":"function","name":"redeemErc","inputs":[{"name":"asset","type":"address","internalType":"address"},{"name":"amtWallet","type":"uint88","internalType":"uint88"},{"name":"amtEscrow","type":"uint88","internalType":"uint88"}],"outputs":[],"stateMutability":"nonpayable"},{"type":"function","name":"safeTransferFrom","inputs":[{"name":"from","type":"address","internalType":"address"},{"name":"to","type":"address","internalType":"address"},{"name":"tokenId","type":"uint256","internalType":"uint256"}],"outputs":[],"stateMutability":"nonpayable"},{"type":"function","name":"safeTransferFrom","inputs":[{"name":"from","type":"address","internalType":"address"},{"name":"to","type":"address","internalType":"address"},{"name":"tokenId","type":"uint256","internalType":"uint256"},{"name":"data","type":"bytes","internalType":"bytes"}],"outputs":[],"stateMutability":"nonpayable"},{"type":"function","name":"setApprovalForAll","inputs":[{"name":"operator","type":"address","internalType":"address"},{"name":"approved","type":"bool","internalType":"bool"}],"outputs":[],"stateMutability":"nonpayable"},{"type":"function","name":"setCallerFeePct","inputs":[{"name":"asset","type":"address","internalType":"address"},{"name":"value","type":"uint8","internalType":"uint8"}],"outputs":[],"stateMutability":"nonpayable"},{"type":"function","name":"setDittoMatchedRate","inputs":[{"name":"vault","type":"uint256","internalType":"uint256"},{"name":"rewardRate","type":"uint16","internalType":"uint16"}],"outputs":[],"stateMutability":"nonpayable"},{"type":"function","name":"setDittoShorterRate","inputs":[{"name":"vault","type":"uint256","internalType":"uint256"},{"name":"rewardRate","type":"uint16","internalType":"uint16"}],"outputs":[],"stateMutability":"nonpayable"},{"type":"function","name":"setFirstLiquidationTime","inputs":[{"name":"asset","type":"address","internalType":"address"},{"name":"value","type":"uint8","internalType":"uint8"}],"outputs":[],"stateMutability":"nonpayable"},{"type":"function","name":"setForcedBidPriceBuffer","inputs":[{"name":"asset","type":"address","internalType":"address"},{"name":"value","type":"uint8","internalType":"uint8"}],"outputs":[],"stateMutability":"nonpayable"},{"type":"function","name":"setInitialCR","inputs":[{"name":"asset","type":"address","internalType":"address"},{"name":"value","type":"uint16","internalType":"uint16"}],"outputs":[],"stateMutability":"nonpayable"},{"type":"function","name":"setMinAskEth","inputs":[{"name":"asset","type":"address","internalType":"address"},{"name":"value","type":"uint8","internalType":"uint8"}],"outputs":[],"stateMutability":"nonpayable"},{"type":"function","name":"setMinBidEth","inputs":[{"name":"asset","type":"address","internalType":"address"},{"name":"value","type":"uint8","internalType":"uint8"}],"outputs":[],"stateMutability":"nonpayable"},{"type":"function","name":"setMinShortErc","inputs":[{"name":"asset","type":"address","internalType":"address"},{"name":"value","type":"uint16","internalType":"uint16"}],"outputs":[],"stateMutability":"nonpayable"},{"type":"function","name":"setMinimumCR","inputs":[{"name":"asset","type":"address","internalType":"address"},{"name":"value","type":"uint8","internalType":"uint8"}],"outputs":[],"stateMutability":"nonpayable"},{"type":"function","name":"setPrimaryLiquidationCR","inputs":[{"name":"asset","type":"address","internalType":"address"},{"name":"value","type":"uint16","internalType":"uint16"}],"outputs":[],"stateMutability":"nonpayable"},{"type":"function","name":"setResetLiquidationTime","inputs":[{"name":"asset","type":"address","internalType":"address"},{"name":"value","type":"uint8","internalType":"uint8"}],"outputs":[],"stateMutability":"nonpayable"},{"type":"function","name":"setSecondLiquidationTime","inputs":[{"name":"asset","type":"address","internalType":"address"},{"name":"value","type":"uint8","internalType":"uint8"}],"outputs":[],"stateMutability":"nonpayable"},{"type":"function","name":"setSecondaryLiquidationCR","inputs":[{"name":"asset","type":"address","internalType":"address"},{"name":"value","type":"uint16","internalType":"uint16"}],"outputs":[],"stateMutability":"nonpayable"},{"type":"function","name":"setTappFeePct","inputs":[{"name":"asset","type":"address","internalType":"address"},{"name":"value","type":"uint8","internalType":"uint8"}],"outputs":[],"stateMutability":"nonpayable"},{"type":"function","name":"setTithe","inputs":[{"name":"vault","type":"uint256","internalType":"uint256"},{"name":"dethTithePercent","type":"uint16","internalType":"uint16"}],"outputs":[],"stateMutability":"nonpayable"},{"type":"function","name":"setWithdrawalFee","inputs":[{"name":"bridge","type":"address","internalType":"address"},{"name":"withdrawalFee","type":"uint16","internalType":"uint16"}],"outputs":[],"stateMutability":"nonpayable"},{"type":"function","name":"shutdownMarket","inputs":[{"name":"asset","type":"address","internalType":"address"}],"outputs":[],"stateMutability":"nonpayable"},{"type":"function","name":"supportsInterface","inputs":[{"name":"_interfaceId","type":"bytes4","internalType":"bytes4"}],"outputs":[{"name":"","type":"bool","internalType":"bool"}],"stateMutability":"view"},{"type":"function","name":"tokenURI","inputs":[{"name":"id","type":"uint256","internalType":"uint256"}],"outputs":[{"name":"","type":"string","internalType":"string"}],"stateMutability":"view"},{"type":"function","name":"transferAdminship","inputs":[{"name":"newAdmin","type":"address","internalType":"address"}],"outputs":[],"stateMutability":"nonpayable"},{"type":"function","name":"transferFrom","inputs":[{"name":"from","type":"address","internalType":"address"},{"name":"to","type":"address","internalType":"address"},{"name":"tokenId","type":"uint256","internalType":"uint256"}],"outputs":[],"stateMutability":"nonpayable"},{"type":"function","name":"transferOwnership","inputs":[{"name":"newOwner","type":"address","internalType":"address"}],"outputs":[],"stateMutability":"nonpayable"},{"type":"function","name":"updateYield","inputs":[{"name":"vault","type":"uint256","internalType":"uint256"}],"outputs":[],"stateMutability":"nonpayable"},{"type":"function","name":"withdraw","inputs":[{"name":"bridge","type":"address","internalType":"address"},{"name":"dethAmount","type":"uint88","internalType":"uint88"}],"outputs":[],"stateMutability":"nonpayable"},{"type":"function","name":"withdrawAsset","inputs":[{"name":"asset","type":"address","internalType":"address"},{"name":"amount","type":"uint104","internalType":"uint104"}],"outputs":[],"stateMutability":"nonpayable"},{"type":"function","name":"withdrawDittoReward","inputs":[{"name":"vault","type":"uint256","internalType":"uint256"}],"outputs":[],"stateMutability":"nonpayable"},{"type":"function","name":"withdrawTapp","inputs":[{"name":"bridge","type":"address","internalType":"address"},{"name":"dethAmount","type":"uint88","internalType":"uint88"}],"outputs":[],"stateMutability":"nonpayable"},{"type":"event","name":"Approval","inputs":[{"name":"owner","type":"address","indexed":true,"internalType":"address"},{"name":"spender","type":"address","indexed":true,"internalType":"address"},{"name":"id","type":"uint256","indexed":true,"internalType":"uint256"}],"anonymous":false},{"type":"event","name":"ApprovalForAll","inputs":[{"name":"owner","type":"address","indexed":true,"internalType":"address"},{"name":"operator","type":"address","indexed":true,"internalType":"address"},{"name":"approved","type":"bool","indexed":false,"internalType":"bool"}],"anonymous":false},{"type":"event","name":"CancelOrder","inputs":[{"name":"asset","type":"address","indexed":true,"internalType":"address"},{"name":"id","type":"uint16","indexed":false,"internalType":"uint16"},{"name":"orderType","type":"uint8","indexed":true,"internalType":"enum O"}],"anonymous":false},{"type":"event","name":"ChangeBridgeSetting","inputs":[{"name":"bridge","type":"address","indexed":true,"internalType":"address"}],"anonymous":false},{"type":"event","name":"ChangeMarketSetting","inputs":[{"name":"asset","type":"address","indexed":true,"internalType":"address"}],"anonymous":false},{"type":"event","name":"ChangeVaultSetting","inputs":[{"name":"vault","type":"uint256","indexed":true,"internalType":"uint256"}],"anonymous":false},{"type":"event","name":"ClaimDittoMatchedReward","inputs":[{"name":"vault","type":"uint256","indexed":true,"internalType":"uint256"},{"name":"user","type":"address","indexed":true,"internalType":"address"}],"anonymous":false},{"type":"event","name":"CombineShorts","inputs":[{"name":"asset","type":"address","indexed":true,"internalType":"address"},{"name":"user","type":"address","indexed":true,"internalType":"address"},{"name":"ids","type":"uint8[]","indexed":false,"internalType":"uint8[]"}],"anonymous":false},{"type":"event","name":"CreateBridge","inputs":[{"name":"bridge","type":"address","indexed":true,"internalType":"address"},{"name":"bridgeStruct","type":"tuple","indexed":false,"internalType":"struct EtherscanDiamondImpl.Bridge","components":[{"name":"vault","type":"uint8","internalType":"uint8"},{"name":"withdrawalFee","type":"uint16","internalType":"uint16"},{"name":"unstakeFee","type":"uint8","internalType":"uint8"}]}],"anonymous":false},{"type":"event","name":"CreateMarket","inputs":[{"name":"asset","type":"address","indexed":true,"internalType":"address"},{"name":"assetStruct","type":"tuple","indexed":false,"internalType":"struct STypes.Asset","components":[{"name":"ercDebt","type":"uint104","internalType":"uint104"},{"name":"dethCollateral","type":"uint88","internalType":"uint88"},{"name":"startingShortId","type":"uint16","internalType":"uint16"},{"name":"orderIdCounter","type":"uint16","internalType":"uint16"},{"name":"initialCR","type":"uint16","internalType":"uint16"},{"name":"frozen","type":"uint8","internalType":"enum F"},{"name":"vault","type":"uint8","internalType":"uint8"},{"name":"minBidEth","type":"uint8","internalType":"uint8"},{"name":"minAskEth","type":"uint8","internalType":"uint8"},{"name":"minShortErc","type":"uint16","internalType":"uint16"},{"name":"minimumCR","type":"uint8","internalType":"uint8"},{"name":"tappFeePct","type":"uint8","internalType":"uint8"},{"name":"callerFeePct","type":"uint8","internalType":"uint8"},{"name":"forcedBidPriceBuffer","type":"uint8","internalType":"uint8"},{"name":"assetId","type":"uint8","internalType":"uint8"},{"name":"ercDebtRate","type":"uint64","internalType":"uint64"},{"name":"primaryLiquidationCR","type":"uint16","internalType":"uint16"},{"name":"secondaryLiquidationCR","type":"uint16","internalType":"uint16"},{"name":"resetLiquidationTime","type":"uint8","internalType":"uint8"},{"name":"secondLiquidationTime","type":"uint8","internalType":"uint8"},{"name":"firstLiquidationTime","type":"uint8","internalType":"uint8"},{"name":"filler","type":"uint64","internalType":"uint64"},{"name":"oracle","type":"address","internalType":"address"}]}],"anonymous":false},{"type":"event","name":"CreateOrder","inputs":[{"name":"asset","type":"address","indexed":true,"internalType":"address"},{"name":"user","type":"address","indexed":true,"internalType":"address"},{"name":"orderType","type":"uint8","indexed":true,"internalType":"enum O"},{"name":"id","type":"uint16","indexed":false,"internalType":"uint16"},{"name":"ercAmount","type":"uint88","indexed":false,"internalType":"uint88"}],"anonymous":false},{"type":"event","name":"CreateShortRecord","inputs":[{"name":"asset","type":"address","indexed":true,"internalType":"address"},{"name":"user","type":"address","indexed":true,"internalType":"address"},{"name":"id","type":"uint16","indexed":false,"internalType":"uint16"}],"anonymous":false},{"type":"event","name":"CreateVault","inputs":[{"name":"deth","type":"address","indexed":true,"internalType":"address"},{"name":"vault","type":"uint256","indexed":true,"internalType":"uint256"}],"anonymous":false},{"type":"event","name":"DecreaseCollateral","inputs":[{"name":"asset","type":"address","indexed":true,"internalType":"address"},{"name":"user","type":"address","indexed":true,"internalType":"address"},{"name":"id","type":"uint8","indexed":false,"internalType":"uint8"},{"name":"amount","type":"uint256","indexed":false,"internalType":"uint256"}],"anonymous":false},{"type":"event","name":"DeleteShortRecord","inputs":[{"name":"asset","type":"address","indexed":true,"internalType":"address"},{"name":"user","type":"address","indexed":true,"internalType":"address"},{"name":"id","type":"uint16","indexed":false,"internalType":"uint16"}],"anonymous":false},{"type":"event","name":"Deposit","inputs":[{"name":"bridge","type":"address","indexed":true,"internalType":"address"},{"name":"user","type":"address","indexed":true,"internalType":"address"},{"name":"amount","type":"uint256","indexed":false,"internalType":"uint256"}],"anonymous":false},{"type":"event","name":"DepositEth","inputs":[{"name":"bridge","type":"address","indexed":true,"internalType":"address"},{"name":"user","type":"address","indexed":true,"internalType":"address"},{"name":"amount","type":"uint256","indexed":false,"internalType":"uint256"}],"anonymous":false},{"type":"event","name":"DiamondCut","inputs":[{"name":"_diamondCut","type":"tuple[]","indexed":false,"internalType":"struct EtherscanDiamondImpl.FacetCut[]","components":[{"name":"facetAddress","type":"address","internalType":"address"},{"name":"action","type":"uint8","internalType":"uint8"},{"name":"functionSelectors","type":"bytes4[]","internalType":"bytes4[]"}]},{"name":"_init","type":"address","indexed":false,"internalType":"address"},{"name":"_calldata","type":"bytes","indexed":false,"internalType":"bytes"}],"anonymous":false},{"type":"event","name":"DistributeYield","inputs":[{"name":"vault","type":"uint256","indexed":true,"internalType":"uint256"},{"name":"user","type":"address","indexed":true,"internalType":"address"},{"name":"yield","type":"uint256","indexed":false,"internalType":"uint256"},{"name":"dittoYieldShares","type":"uint256","indexed":false,"internalType":"uint256"}],"anonymous":false},{"type":"event","name":"ExitShort","inputs":[{"name":"asset","type":"address","indexed":true,"internalType":"address"},{"name":"user","type":"address","indexed":true,"internalType":"address"},{"name":"id","type":"uint8","indexed":false,"internalType":"uint8"},{"name":"amount","type":"uint256","indexed":false,"internalType":"uint256"}],"anonymous":false},{"type":"event","name":"ExitShortErcEscrowed","inputs":[{"name":"asset","type":"address","indexed":true,"internalType":"address"},{"name":"user","type":"address","indexed":true,"internalType":"address"},{"name":"id","type":"uint8","indexed":false,"internalType":"uint8"},{"name":"amount","type":"uint256","indexed":false,"internalType":"uint256"}],"anonymous":false},{"type":"event","name":"ExitShortWallet","inputs":[{"name":"asset","type":"address","indexed":true,"internalType":"address"},{"name":"user","type":"address","indexed":true,"internalType":"address"},{"name":"id","type":"uint8","indexed":false,"internalType":"uint8"},{"name":"amount","type":"uint256","indexed":false,"internalType":"uint256"}],"anonymous":false},{"type":"event","name":"IncreaseCollateral","inputs":[{"name":"asset","type":"address","indexed":true,"internalType":"address"},{"name":"user","type":"address","indexed":true,"internalType":"address"},{"name":"id","type":"uint8","indexed":false,"internalType":"uint8"},{"name":"amount","type":"uint256","indexed":false,"internalType":"uint256"}],"anonymous":false},{"type":"event","name":"Liquidate","inputs":[{"name":"asset","type":"address","indexed":true,"internalType":"address"},{"name":"shorter","type":"address","indexed":true,"internalType":"address"},{"name":"id","type":"uint8","indexed":false,"internalType":"uint8"},{"name":"caller","type":"address","indexed":true,"internalType":"address"},{"name":"amount","type":"uint256","indexed":false,"internalType":"uint256"}],"anonymous":false},{"type":"event","name":"LiquidateSecondary","inputs":[{"name":"asset","type":"address","indexed":true,"internalType":"address"},{"name":"batches","type":"tuple[]","indexed":false,"internalType":"struct EtherscanDiamondImpl.BatchLiquidation[]","components":[{"name":"shorter","type":"address","internalType":"address"},{"name":"shortId","type":"uint8","internalType":"uint8"}]},{"name":"caller","type":"address","indexed":true,"internalType":"address"},{"name":"isWallet","type":"bool","indexed":false,"internalType":"bool"}],"anonymous":false},{"type":"event","name":"MatchOrder","inputs":[{"name":"asset","type":"address","indexed":true,"internalType":"address"},{"name":"user","type":"address","indexed":true,"internalType":"address"},{"name":"orderType","type":"uint8","indexed":true,"internalType":"enum O"},{"name":"id","type":"uint16","indexed":false,"internalType":"uint16"},{"name":"fillEth","type":"uint88","indexed":false,"internalType":"uint88"},{"name":"fillErc","type":"uint88","indexed":false,"internalType":"uint88"}],"anonymous":false},{"type":"event","name":"NewAdmin","inputs":[{"name":"newAdmin","type":"address","indexed":false,"internalType":"address"}],"anonymous":false},{"type":"event","name":"NewOwnerCandidate","inputs":[{"name":"newOwnerCandidate","type":"address","indexed":false,"internalType":"address"}],"anonymous":false},{"type":"event","name":"OwnershipTransferred","inputs":[{"name":"previousOwner","type":"address","indexed":true,"internalType":"address"},{"name":"newOwner","type":"address","indexed":true,"internalType":"address"}],"anonymous":false},{"type":"event","name":"RedeemErc","inputs":[{"name":"asset","type":"address","indexed":true,"internalType":"address"},{"name":"user","type":"address","indexed":true,"internalType":"address"},{"name":"amtWallet","type":"uint256","indexed":false,"internalType":"uint256"},{"name":"amtEscrow","type":"uint256","indexed":false,"internalType":"uint256"}],"anonymous":false},{"type":"event","name":"ShutdownMarket","inputs":[{"name":"asset","type":"address","indexed":true,"internalType":"address"}],"anonymous":false},{"type":"event","name":"Transfer","inputs":[{"name":"from","type":"address","indexed":true,"internalType":"address"},{"name":"to","type":"address","indexed":true,"internalType":"address"},{"name":"id","type":"uint256","indexed":true,"internalType":"uint256"}],"anonymous":false},{"type":"event","name":"UpdateYield","inputs":[{"name":"vault","type":"uint256","indexed":true,"internalType":"uint256"}],"anonymous":false},{"type":"event","name":"Withdraw","inputs":[{"name":"bridge","type":"address","indexed":true,"internalType":"address"},{"name":"user","type":"address","indexed":true,"internalType":"address"},{"name":"amount","type":"uint256","indexed":false,"internalType":"uint256"},{"name":"fee","type":"uint256","indexed":false,"internalType":"uint256"}],"anonymous":false},{"type":"event","name":"WithdrawTapp","inputs":[{"name":"bridge","type":"address","indexed":true,"internalType":"address"},{"name":"recipient","type":"address","indexed":true,"internalType":"address"},{"name":"amount","type":"uint256","indexed":false,"internalType":"uint256"}],"anonymous":false}],"bytecode":{"object":"0x608060405234801561000f575f80fd5b506139e48061001d5f395ff3fe6080604052600436106106b2575f3560e01c80637db6eec911610369578063cbee05bf116101c8578063ec70a2f8116100fd578063f24f250b1161009d578063f851a44011610078578063f851a44014610cb9578063fb5c0a59146111a8578063fc8b8d6b14610ac3578063ff859c9514611210575f80fd5b8063f24f250b1461115d578063f2fde38b14611189578063f62f370514610f3c575f80fd5b8063f0ac360b116100d8578063f0ac360b14610e3d578063f1562f121461111f578063f20318591461070b578063f23811cc1461113e575f80fd5b8063ec70a2f8146109aa578063ee9a237f14611100578063ef9bdfdb14610850575f80fd5b8063d53f44b111610168578063e2c068db11610143578063e2c068db146110c7578063e946805114610850578063e985e9c5146110e6578063e9a2269b14610836575f80fd5b8063d53f44b114611077578063d7516a9014611096578063d88ee0dc146110a8575f80fd5b8063ce3d77f7116101a3578063ce3d77f714610f8f578063ce645d4114610fae578063cf25425114610fcd578063d166838514610fec575f80fd5b8063cbee05bf14610f3c578063ccf0850e14610f56578063cdffacc614610f75575f80fd5b8063a22cb4651161029e578063b88d4fde1161023e578063bd6b8f0111610219578063bd6b8f0114610e3d578063c09b0d2014610850578063c1cf2e3014610c21578063c87b56dd14610f15575f80fd5b8063b88d4fde14610edc578063b9bf5bf614610ef6578063bc47cc0814610a8a575f80fd5b8063ae18d6ce11610279578063ae18d6ce14610a8a578063b22b4c8714610ebd578063b4a9a0de14610756578063b7b770031461070b575f80fd5b8063a22cb46514610e64578063ad9d4ba314610e83578063adfca15e14610e96575f80fd5b80638e16e161116103095780639421590b116102e45780639421590b14610d9a578063973cfb4114610dba5780639d54ce7814610a8a5780639dccae8214610e3d575f80fd5b80638e16e161146107c4578063920ed6f41461070b57806393d7a51e14610d7d575f80fd5b80638421b931116103445780638421b93114610d445780638587131714610d635780638d2bd5cd146109aa5780638da5cb5b14610cb9575f80fd5b80637db6eec9146108365780637e89334f14610c21578063804c24d814610d25575f80fd5b8063350e0b3c1161051557806354ea9f351161044a5780635f504a82116103ea5780636b23cb93116103c55780636b23cb9314610cea5780636f864baf1461070b57806370a08231146108365780637a0ed62714610d0a575f80fd5b80635f504a8214610cb95780636301727b14610ccb5780636352211e14610785575f80fd5b806358ec79871161042557806358ec798714610bf05780635a61aa1d14610c215780635be7cc1614610c3b5780635cb1be9914610c5a575f80fd5b806354ea9f351461070b578063564305d314610ba25780635681e38914610bc1575f80fd5b806344a8aa98116104b55780634e71e0c8116104905780634e71e0c814610b5c57806352ef6b2c14610b6757806353105b4d14610756578063539baa7314610b83575f80fd5b806344a8aa981461070b578063493a314f14610b3d5780634c87276e14610836575f80fd5b80633adc16fc116104f05780633adc16fc14610ac35780633ba254f114610add5780633f32ac3714610afc57806342842e0e14610b1e575f80fd5b8063350e0b3c14610a8a57806336cee7b914610a8a5780633824d85214610aa4575f80fd5b80631f931c1c116105eb5780632af639cd1161058b5780632ca47c6d116105665780632ca47c6d1461070b5780632e9a1de114610a6b5780632ee19f6a1461083657806331f1f14914610a8a575f80fd5b80632af639cd14610a0e5780632ba8c92014610a2d5780632bf34f7914610a4c575f80fd5b8063254c5272116105c6578063254c527214610836578063258119b3146109aa578063269010c5146109c457806328a08f1c1461070b575f80fd5b80631f931c1c1461088957806323b872dd146108a857806324ddaf90146108c7575f80fd5b806308186cb0116106565780630c381986116106315780630c381986146108175780630eb9af381461083657806312779fcd146108505780631798cd0e1461086a575f80fd5b806308186cb0146107c4578063095ea7b3146107de5780630b545214146107fd575f80fd5b8063024ef0dd11610691578063024ef0dd1461072957806303bf6bec1461070b57806307ca4c7014610756578063081812fc14610785575f80fd5b80625b6317146106b657806301ffc9a7146106d7578063020170111461070b575b5f80fd5b3480156106c1575f80fd5b506106d56106d0366004611e42565b61122a565b005b3480156106e2575f80fd5b506106f66106f1366004611eb1565b505f90565b60405190151581526020015b60405180910390f35b348015610716575f80fd5b506106d5610725366004611eda565b5050565b348015610734575f80fd5b506107436106f1366004611f0b565b60405161ffff9091168152602001610702565b348015610761575f80fd5b50610777610770366004611f24565b5f92915050565b604051908152602001610702565b348015610790575f80fd5b5061079f6106f1366004611f45565b60405173ffffffffffffffffffffffffffffffffffffffff9091168152602001610702565b3480156107cf575f80fd5b506107776107703660046120d5565b3480156107e9575f80fd5b506106d56107f8366004612208565b611291565b348015610808575f80fd5b50610777610770366004612230565b348015610822575f80fd5b506106d561083136600461227f565b6112d9565b348015610841575f80fd5b506107776106f1366004611f0b565b34801561085b575f80fd5b506107776106f1366004611f45565b348015610875575f80fd5b506106d56108843660046122a7565b61131d565b348015610894575f80fd5b506106d56108a336600461237c565b611381565b3480156108b3575f80fd5b506106d56108c236600461252f565b6113c1565b3480156108d2575f80fd5b5061099d6108e1366004611f0b565b50604080516102e0810182525f80825260208201819052918101829052606081018290526080810182905260a0810182905260c0810182905260e08101829052610100810182905261012081018290526101408101829052610160810182905261018081018290526101a081018290526101c081018290526101e08101829052610200810182905261022081018290526102408101829052610260810182905261028081018290526102a081018290526102c081019190915290565b60405161070291906125a1565b3480156109b5575f80fd5b50610743610770366004612208565b3480156109cf575f80fd5b506109ea6109de3660046127c5565b5f809550959350505050565b604080516affffffffffffffffffffff938416815292909116602083015201610702565b348015610a19575f80fd5b506106d5610a2836600461227f565b611426565b348015610a38575f80fd5b506109ea610a473660046128d1565b611474565b348015610a57575f80fd5b506106d5610a66366004611f0b565b6114e0565b348015610a76575f80fd5b506106d5610a85366004611f45565b611523565b348015610a95575f80fd5b506106d561072536600461227f565b348015610aaf575f80fd5b506106d5610abe366004612970565b611550565b348015610ace575f80fd5b506106d56107253660046129ad565b348015610ae8575f80fd5b506106d5610af73660046129d5565b61157e565b348015610b07575f80fd5b505f5b60405162ffffff9091168152602001610702565b348015610b29575f80fd5b506106d5610b3836600461252f565b505050565b348015610b48575f80fd5b506106d5610b57366004612a6d565b6115c5565b3480156106d5575f80fd5b348015610b72575f80fd5b5060605b6040516107029190612b5f565b348015610b8e575f80fd5b506106d5610b9d366004612bb8565b611632565b348015610bad575f80fd5b506109ea610bbc366004612c4b565b611673565b348015610bcc575f80fd5b50610be3610bdb366004612cb6565b606092915050565b6040516107029190612de8565b348015610bfb575f80fd5b50610c14610c0a366004612e2a565b6060949350505050565b6040516107029190612e6b565b348015610c2c575f80fd5b50610777610770366004612cb6565b348015610c46575f80fd5b506106d5610c55366004611f0b565b6116db565b348015610c65575f80fd5b50610c79610c74366004611f24565b611728565b6040805182516affffffffffffffffffffff9081168252602080850151909116908201529181015169ffffffffffffffffffff1690820152606001610702565b348015610cc4575f80fd5b505f61079f565b348015610cd6575f80fd5b506106d5610ce536600461227f565b61174b565b348015610cf5575f80fd5b50610b76610d04366004611f45565b50606090565b348015610d15575f80fd5b5060606040516107029190612f18565b348015610d30575f80fd5b506106d5610d3f366004612fbe565b61178f565b348015610d4f575f80fd5b506106d5610d5e366004612fbe565b6117ee565b348015610d6e575f80fd5b50610b0a610770366004612cb6565b348015610d88575f80fd5b506106d5610d97366004611f45565b50565b348015610da5575f80fd5b506106d5610db4366004612fe7565b50505050565b348015610dc5575f80fd5b50610e30610dd4366004611f45565b5060408051610160810182525f80825260208201819052918101829052606081018290526080810182905260a0810182905260c0810182905260e081018290526101008101829052610120810182905261014081019190915290565b604051610702919061302d565b348015610e48575f80fd5b50610e57610d04366004611f0b565b6040516107029190613156565b348015610e6f575f80fd5b506106d5610e7e36600461325d565b61184d565b6106d5610e91366004611f0b565b611899565b348015610ea1575f80fd5b50610eb0610d04366004611f0b565b6040516107029190613285565b348015610ec8575f80fd5b506106d5610ed73660046122a7565b6118e3565b348015610ee7575f80fd5b506106d5610db4366004613297565b348015610f01575f80fd5b506106d5610f103660046132ef565b61193a565b348015610f20575f80fd5b50610f2f610d04366004611f45565b604051610702919061338f565b348015610f47575f80fd5b506106d5610725366004612970565b348015610f61575f80fd5b506106d5610f70366004612fbe565b6119c1565b348015610f80575f80fd5b5061079f6106f1366004611eb1565b348015610f9a575f80fd5b506106d5610fa9366004611f45565b611a20565b348015610fb9575f80fd5b506106d5610fc83660046133a1565b611a4f565b348015610fd8575f80fd5b506106d5610fe73660046122a7565b611aac565b348015610ff7575f80fd5b5061100b611006366004612cb6565b611b03565b60405161070291905f60a0820190506cffffffffffffffffffffffffff835116825262ffffff602084015116602083015263ffffffff604084015116604083015260ff60608401511660608301526bffffffffffffffffffffffff608084015116608083015292915050565b348015611082575f80fd5b506106d5611091366004613447565b611b32565b3480156110a1575f80fd5b505f610777565b3480156110b3575f80fd5b506106d56110c23660046134b5565b611b9a565b3480156110d2575f80fd5b506106d56110e136600461227f565b611c03565b3480156110f1575f80fd5b506106f6610770366004612cb6565b34801561110b575f80fd5b506106d561111a36600461350a565b611c51565b34801561112a575f80fd5b506106d5611139366004612fbe565b611ca3565b348015611149575f80fd5b506106d561115836600461370f565b611d02565b348015611168575f80fd5b5061117c6111773660046137ae565b611d57565b60405161070291906137e5565b348015611194575f80fd5b506106d56111a3366004611f0b565b611dbf565b3480156111b3575f80fd5b506111e26111c2366004611f0b565b50604080516060810182525f808252602082018190529181019190915290565b60408051825160ff908116825260208085015161ffff16908301529282015190921690820152606001610702565b34801561121b575f80fd5b506106d5610db43660046137f4565b604080516affffffffffffffffffffff808516825283166020820152339173ffffffffffffffffffffffffffffffffffffffff8616917f118ce4f1417652fabd622f39daf2b01dfc4b81b97a310404fb301be4eb1bfb4a91015b60405180910390a3505050565b604051819073ffffffffffffffffffffffffffffffffffffffff84169033907f8c5be1e5ebec7d5bd14f71427d1e84f3dd0314c0f7b2291e5b200ac8c7c3b925905f90a45050565b60405173ffffffffffffffffffffffffffffffffffffffff8316907f176c9a97fca1fd92bc74be87c70d2a5c973281e710f0d22f44b613523046f3f5905f90a25050565b604080516affffffffffffffffffffff831681525f6020820152339173ffffffffffffffffffffffffffffffffffffffff8516917ff341246adaac6f497bc2a656f546ab9e182111d630394f0c57c710a59a2cb56791015b60405180910390a35050565b7f8faa70878671ccd212d20771b795c50af8fd3ff6cf27f4bde57e5d4de0aeb6738383836040516113b49392919061382c565b60405180910390a1505050565b808273ffffffffffffffffffffffffffffffffffffffff168473ffffffffffffffffffffffffffffffffffffffff167fddf252ad1be2c89b69c2b068fc378daa952ba7f163c4a11628f55a4df523b3ef60405160405180910390a4505050565b919050565b60405161ffff82168152339073ffffffffffffffffffffffffffffffffffffffff8416907f308fabf328a16a122870d17bc942c7d1030c9f3f3eb3bd0d0139bbc75e705a3590602001611375565b5f806001604080515f8082526020820181905291810191909152339073ffffffffffffffffffffffffffffffffffffffff8b16907f1140e445b15f25d17f29961cc427972f8a2fe6c255e4a15a370e17620206fb829060600160405180910390a4965096945050505050565b60405173ffffffffffffffffffffffffffffffffffffffff8216907f1b7c24f2ead81c62605e322c9fae410f0b635385a1102efc72915f0dbbfcaa18905f90a250565b60405181907f9ab6b10346b6b8a9fabe0f99391f506eaa7d013773daabad99706638118ecdfc905f90a250565b60405182907fb38f3ea9dfbc88b1e2d3254953019184a51acf58bdb975272d74570ed3f547ed905f90a25050565b604051829073ffffffffffffffffffffffffffffffffffffffff8516907f31f3334dc9bd026d54d245a1e186015d00b5f7f75102fb9ac3f682dcc72d6ff6905f90a3505050565b3373ffffffffffffffffffffffffffffffffffffffff168473ffffffffffffffffffffffffffffffffffffffff167fefa05be072297355172d8e610bf7e40522f1c4111c18288a9a19569be98d81458584604051611624929190613905565b60405180910390a350505050565b604080515f808252602082015233916001917f0b610b2b11de71b9aaaf36911e0b529cd822aa5f73a5c3d567d998b11240a77891015b60405180910390a350565b6040805160ff841681525f60208201819052918291339173ffffffffffffffffffffffffffffffffffffffff88811692908a16917f722f38b9cea5a34d120f6e632ef23b3af26b672778f87a4af045dd65278eff1f910160405180910390a494509492505050565b60405173ffffffffffffffffffffffffffffffffffffffff821681527f71614071b88dee5e0b2ae578a9dd7b2ebbe9ae832ba419dc0242cd065a290b6c906020015b60405180910390a150565b604080516060810182525f80825260208201819052918101919091525b92915050565b60405173ffffffffffffffffffffffffffffffffffffffff8316907f6a6f407da4fdc0bf2293bd6cecdf052dbdf30c15140e12cd16fb3ce8c8540a52905f90a25050565b6040805160ff841681526affffffffffffffffffffff83166020820152339173ffffffffffffffffffffffffffffffffffffffff8616917f13a9fcfbd071fe67eb7abae9bf41ff027bb388ae4ce8b8e5c0989b77d8957ccd9101611284565b6040805160ff841681526affffffffffffffffffffff83166020820152339173ffffffffffffffffffffffffffffffffffffffff8616917ffc80b5802cc918b5acb75f4e7609b240b3f67e31446ad0f835da400e91340b1b9101611284565b604051811515815273ffffffffffffffffffffffffffffffffffffffff83169033907f17307eab39ab6107e8899845ad3d59bd9653f200f220920489ca2b5937696c3190602001611375565b604051348152339073ffffffffffffffffffffffffffffffffffffffff8316907fecd351ae13715d8d17a61da95116380847ff2cb8439b725b614d2ed19a8544bb90602001611668565b6040516affffffffffffffffffffff82168152339073ffffffffffffffffffffffffffffffffffffffff8416907f5548c837ab068cf56a2c2479df0882a4922fd203edb7517321831d95078c5f6290602001611375565b604080516060808201835260ff86811680845261ffff8781166020808701918252888516968801968752875193845290519091169082015292511682840152915173ffffffffffffffffffffffffffffffffffffffff8716927f7a4b8c303dc89141b0bed941be14be6c9327f32567f4f42b01670d4fc3b25328928290030190a250505050565b6040805160ff841681526affffffffffffffffffffff83166020820152339173ffffffffffffffffffffffffffffffffffffffff8616917f9c4d727b13377cb626668f18a0a82b2bd1cc686bdd8f188f07193772f4a50a549101611284565b604051339082907fbc0cb505b8ff606c33d3baf9f61b5bdc270fee0dfefe0a0efd55452109056ca7905f90a350565b3373ffffffffffffffffffffffffffffffffffffffff168273ffffffffffffffffffffffffffffffffffffffff167f7d4b6efcc2825da50822a71402587fb2899cc673e289e6caa8f3cb25994fd8b1836040516113759190613974565b6040516affffffffffffffffffffff82168152339073ffffffffffffffffffffffffffffffffffffffff8416907f0cb9e09e8d84d45d18c5f41ab0fc481c2d09373cce6d995742cfde5a93b469c190602001611375565b6040805160a0810182525f80825260208201819052918101829052606081018290526080810191909152611745565b6002604080515f81526affffffffffffffffffffff86166020820152339173ffffffffffffffffffffffffffffffffffffffff8916917f464d814951bd2dcbcab73412ca99e1ec43435c5f9d3115eba8f8d475edf7dfcd910160405180910390a45050505050565b6040805160ff861681526affffffffffffffffffffff85166020820152339173ffffffffffffffffffffffffffffffffffffffff8816917f1277d363a2f5e455a13a703c62f2ebca395b3c161d0282a5a83b8fd0a3ae11c8910160405180910390a35050505050565b600260405161ffff8316815273ffffffffffffffffffffffffffffffffffffffff8416907f2097d5c49cf7ba09a2520b6b807629746c2527783ac92cac69d88e846c7f33f590602001611375565b8173ffffffffffffffffffffffffffffffffffffffff167f33a2c9858b6f83f3705fc01c32c13d92e67cbc70069edce96d22a6c6cd3dd23482604051611c9791906125a1565b60405180910390a25050565b6040805160ff841681526affffffffffffffffffffff83166020820152339173ffffffffffffffffffffffffffffffffffffffff8616917fd343aa6a6f5898e16702b965b53eb62aad7a2a7cf148a28ee5c9f0710090da079101611284565b6040515f8152339073ffffffffffffffffffffffffffffffffffffffff8816907f098ddd45c8c2cfd19dab7bc996da0fe871e07f039af4def6686bb3115d87e4289060200160405180910390a3505050505050565b60408051610180810182525f80825260208201819052918101829052606081018290526080810182905260a0810182905260c0810182905260e081018290526101008101829052610120810182905261014081018290526101608101919091525b9392505050565b60405173ffffffffffffffffffffffffffffffffffffffff821681527fc1e5791742d47e3e0d710cd0917c5cb15319ebc3392b3ba5a77d9b530bdc3b3a9060200161171d565b803573ffffffffffffffffffffffffffffffffffffffff81168114611421575f80fd5b80356affffffffffffffffffffff81168114611421575f80fd5b5f805f60608486031215611e54575f80fd5b611e5d84611e05565b9250611e6b60208501611e28565b9150611e7960408501611e28565b90509250925092565b80357fffffffff0000000000000000000000000000000000000000000000000000000081168114611421575f80fd5b5f60208284031215611ec1575f80fd5b611db882611e82565b803560ff81168114611421575f80fd5b5f8060408385031215611eeb575f80fd5b611ef483611e05565b9150611f0260208401611eca565b90509250929050565b5f60208284031215611f1b575f80fd5b611db882611e05565b5f8060408385031215611f35575f80fd5b82359150611f0260208401611e05565b5f60208284031215611f55575f80fd5b5035919050565b7f4e487b71000000000000000000000000000000000000000000000000000000005f52604160045260245ffd5b604051610180810167ffffffffffffffff81118282101715611fad57611fad611f5c565b60405290565b6040516060810167ffffffffffffffff81118282101715611fad57611fad611f5c565b6040805190810167ffffffffffffffff81118282101715611fad57611fad611f5c565b6040516102e0810167ffffffffffffffff81118282101715611fad57611fad611f5c565b604051601f82017fffffffffffffffffffffffffffffffffffffffffffffffffffffffffffffffe016810167ffffffffffffffff8111828210171561206457612064611f5c565b604052919050565b803569ffffffffffffffffffff81168114611421575f80fd5b803567ffffffffffffffff81168114611421575f80fd5b803563ffffffff81168114611421575f80fd5b803562ffffff81168114611421575f80fd5b803564ffffffffff81168114611421575f80fd5b5f808284036101a08112156120e8575f80fd5b6120f184611e05565b9250610180807fffffffffffffffffffffffffffffffffffffffffffffffffffffffffffffffe083011215612124575f80fd5b61212c611f89565b915061213a60208601611e28565b825261214860408601611e28565b60208301526121596060860161206c565b604083015261216a60808601611eca565b606083015261217b60a08601611eca565b608083015261218c60c08601611eca565b60a083015261219d60e08601611eca565b60c08301526101006121b0818701612085565b60e08401526101206121c381880161209c565b8285015261014091506121d782880161209c565b908401526101606121e98782016120af565b828501526121f88388016120c1565b9084015250929590945092505050565b5f8060408385031215612219575f80fd5b61222283611e05565b946020939093013593505050565b5f8060408385031215612241575f80fd5b82356fffffffffffffffffffffffffffffffff81168114612260575f80fd5b9150611f026020840161209c565b803561ffff81168114611421575f80fd5b5f8060408385031215612290575f80fd5b61229983611e05565b9150611f026020840161226e565b5f80604083850312156122b8575f80fd5b6122c183611e05565b9150611f0260208401611e28565b5f67ffffffffffffffff8211156122e8576122e8611f5c565b5060051b60200190565b5f82601f830112612301575f80fd5b813567ffffffffffffffff81111561231b5761231b611f5c565b61234c60207fffffffffffffffffffffffffffffffffffffffffffffffffffffffffffffffe0601f8401160161201d565b818152846020838601011115612360575f80fd5b816020850160208301375f918101602001919091529392505050565b5f805f6060848603121561238e575f80fd5b67ffffffffffffffff80853511156123a4575f80fd5b8435850186601f8201126123b6575f80fd5b6123c86123c382356122cf565b61201d565b81358082526020808301929160051b840101898111156123e6575f80fd5b602084015b818110156124f1578581351115612400575f80fd5b8035850160607fffffffffffffffffffffffffffffffffffffffffffffffffffffffffffffffe0828e03011215612435575f80fd5b61243d611fb3565b61244960208301611e05565b815261245760408301611eca565b602082015260608201358881111561246d575f80fd5b8083019250508c603f830112612481575f80fd5b60208201356124926123c3826122cf565b81815260059190911b83016040019060208101908f8311156124b2575f80fd5b6040850194505b828510156124db576124ca85611e82565b8252602094850194909101906124b9565b60408401525050855250602093840193016123eb565b505080965050505061250560208601611e05565b9250604085013581811115612518575f80fd5b612524878288016122f2565b925050509250925092565b5f805f60608486031215612541575f80fd5b61254a84611e05565b925061255860208501611e05565b9150604084013590509250925092565b6002811061259d577f4e487b71000000000000000000000000000000000000000000000000000000005f52602160045260245ffd5b9052565b81516cffffffffffffffffffffffffff1681526102e0810160208301516125d760208401826affffffffffffffffffffff169052565b5060408301516125ed604084018261ffff169052565b506060830151612603606084018261ffff169052565b506080830151612619608084018261ffff169052565b5060a083015161262c60a0840182612568565b5060c083015161264160c084018260ff169052565b5060e083015161265660e084018260ff169052565b506101008381015160ff908116918401919091526101208085015161ffff908116918501919091526101408086015183169085015261016080860151831690850152610180808601518316908501526101a0808601518316908501526101c0808601518316908501526101e08086015167ffffffffffffffff90811691860191909152610200808701518316908601526102208087015190921691850191909152610240808601518316908501526102608086015183169085015261028080860151909216918401919091526102a080850151909116908301526102c08084015173ffffffffffffffffffffffffffffffffffffffff8116828501525b505092915050565b5f82601f83011261276a575f80fd5b8135602061277a6123c3836122cf565b82815260059290921b84018101918181019086841115612798575f80fd5b8286015b848110156127ba576127ad8161226e565b835291830191830161279c565b509695505050505050565b5f805f805f60a086880312156127d9575f80fd5b6127e286611e05565b94506127f060208701611e05565b93506127fe6040870161206c565b925061280c60608701611e28565b9150608086013567ffffffffffffffff811115612827575f80fd5b6128338882890161275b565b9150509295509295909350565b80358015158114611421575f80fd5b5f82601f83011261285e575f80fd5b8135602061286e6123c3836122cf565b82815260069290921b8401810191818101908684111561288c575f80fd5b8286015b848110156127ba57604081890312156128a8575f8081fd5b6128b0611fd6565b6128b98261226e565b81528185013585820152835291830191604001612890565b5f805f805f8060c087890312156128e6575f80fd5b6128ef87611e05565b95506128fd6020880161206c565b945061290b60408801611e28565b935061291960608801612840565b9250608087013567ffffffffffffffff80821115612935575f80fd5b6129418a838b0161284f565b935060a0890135915080821115612956575f80fd5b5061296389828a0161275b565b9150509295509295509295565b5f8060408385031215612981575f80fd5b82359150611f026020840161226e565b80356cffffffffffffffffffffffffff81168114611421575f80fd5b5f80604083850312156129be575f80fd5b6129c783611e05565b9150611f0260208401612991565b5f805f83850360a08112156129e8575f80fd5b6129f185611e05565b93506020850135925060607fffffffffffffffffffffffffffffffffffffffffffffffffffffffffffffffc082011215612a29575f80fd5b50612a32611fb3565b612a3e6040860161226e565b8152612a4c6060860161226e565b6020820152612a5d6080860161226e565b6040820152809150509250925092565b5f805f8060808587031215612a80575f80fd5b612a8985611e05565b935060208086013567ffffffffffffffff811115612aa5575f80fd5b8601601f81018813612ab5575f80fd5b8035612ac36123c3826122cf565b81815260069190911b8201830190838101908a831115612ae1575f80fd5b928401925b82841015612b32576040848c031215612afe575f8081fd5b612b06611fd6565b612b0f85611e05565b8152612b1c868601611eca565b8187015282526040939093019290840190612ae6565b8097505050505050612b4660408601611e28565b9150612b5460608601612840565b905092959194509250565b602080825282518282018190525f9190848201906040850190845b81811015612bac57835173ffffffffffffffffffffffffffffffffffffffff1683529284019291840191600101612b7a565b50909695505050505050565b5f6020808385031215612bc9575f80fd5b823567ffffffffffffffff811115612bdf575f80fd5b8301601f81018513612bef575f80fd5b8035612bfd6123c3826122cf565b81815260059190911b82018301908381019087831115612c1b575f80fd5b928401925b82841015612c4057612c3184611e05565b82529284019290840190612c20565b979650505050505050565b5f805f8060808587031215612c5e575f80fd5b612c6785611e05565b9350612c7560208601611e05565b9250612c8360408601611eca565b9150606085013567ffffffffffffffff811115612c9e575f80fd5b612caa8782880161275b565b91505092959194509250565b5f8060408385031215612cc7575f80fd5b612cd083611e05565b9150611f0260208401611e05565b80516affffffffffffffffffffff1682526020810151612d0d60208401826affffffffffffffffffffff169052565b506040810151612d2b604084018269ffffffffffffffffffff169052565b506060810151612d40606084018260ff169052565b506080810151612d55608084018260ff169052565b5060a0810151612d6a60a084018260ff169052565b5060c0810151612d7f60c084018260ff169052565b5060e0810151612d9b60e084018267ffffffffffffffff169052565b506101008181015163ffffffff9081169184019190915261012080830151909116908301526101408082015162ffffff16908301526101608082015164ffffffffff811682850152610db4565b602080825282518282018190525f9190848201906040850190845b81811015612bac57612e16838551612cde565b928401926101809290920191600101612e03565b5f805f8060808587031215612e3d575f80fd5b612e4685611e05565b935060208501359250612e5b60408601611eca565b9396929550929360600135925050565b602080825282518282018190525f919060409081850190868401855b82811015612eb0578151805161ffff168552860151868501529284019290850190600101612e87565b5091979650505050505050565b5f8151808452602080850194508084015f5b83811015612f0d5781517fffffffff000000000000000000000000000000000000000000000000000000001687529582019590820190600101612ecf565b509495945050505050565b5f6020808301818452808551808352604092508286019150828160051b8701018488015f5b83811015612fb0578883037fffffffffffffffffffffffffffffffffffffffffffffffffffffffffffffffc00185528151805173ffffffffffffffffffffffffffffffffffffffff168452870151878401879052612f9d87850182612ebd565b9588019593505090860190600101612f3d565b509098975050505050505050565b5f805f60608486031215612fd0575f80fd5b612fd984611e05565b9250611e6b60208501611eca565b5f805f8060808587031215612ffa575f80fd5b61300385611e05565b935061301160208601611eca565b925061301f6040860161226e565b9150612b546060860161226e565b81516affffffffffffffffffffff1681526101608101602083015161306160208401826affffffffffffffffffffff169052565b50604083015161307f604084018269ffffffffffffffffffff169052565b50606083015161309e60608401826affffffffffffffffffffff169052565b5060808301516130b4608084018261ffff169052565b5060a08301516130ca60a084018261ffff169052565b5060c08301516130ee60c08401826fffffffffffffffffffffffffffffffff169052565b5060e083015161311260e08401826fffffffffffffffffffffffffffffffff169052565b50610100838101516bffffffffffffffffffffffff81168483015250506101208381015161ffff81168483015250506101408381015161ffff811684830152612753565b602080825282518282018190525f919060409081850190868401855b82811015612eb057815180516affffffffffffffffffffff1685528681015169ffffffffffffffffffff16878601528581015161ffff9081168787015260608083015182169087015260808083015182169087015260a08083015160ff9081169188019190915260c08084015163ffffffff169088015260e08084015173ffffffffffffffffffffffffffffffffffffffff169088015261010080840151821690880152610120808401519092169187019190915261014080830151909116908601526101609081015167ffffffffffffffff16908501526101809093019290850190600101613172565b5f806040838503121561326e575f80fd5b61327783611e05565b9150611f0260208401612840565b602081525f611db86020830184612ebd565b5f805f80608085870312156132aa575f80fd5b6132b385611e05565b93506132c160208601611e05565b925060408501359150606085013567ffffffffffffffff8111156132e3575f80fd5b612caa878288016122f2565b5f805f8060808587031215613302575f80fd5b61330b85611e05565b9350602085013592506133206040860161226e565b9150612b5460608601611eca565b5f81518084525f5b8181101561335257602081850181015186830182015201613336565b505f6020828601015260207fffffffffffffffffffffffffffffffffffffffffffffffffffffffffffffffe0601f83011685010191505092915050565b602081525f611db8602083018461332e565b5f80604083850312156133b2575f80fd5b6133bb83611e05565b915060208084013567ffffffffffffffff8111156133d7575f80fd5b8401601f810186136133e7575f80fd5b80356133f56123c3826122cf565b81815260059190911b82018301908381019088831115613413575f80fd5b928401925b828410156134385761342984611eca565b82529284019290840190613418565b80955050505050509250929050565b5f805f805f60a0868803121561345b575f80fd5b61346486611e05565b94506134726020870161206c565b935061348060408701611e28565b925061348e60608701612840565b9150608086013567ffffffffffffffff8111156134a9575f80fd5b6128338882890161284f565b5f805f805f60a086880312156134c9575f80fd5b6134d286611e05565b94506134e060208701611eca565b93506134ee60408701611e28565b925061280c6060870161206c565b803560028110611421575f80fd5b5f8082840361030081121561351d575f80fd5b61352684611e05565b92506102e0807fffffffffffffffffffffffffffffffffffffffffffffffffffffffffffffffe083011215613559575f80fd5b613561611ff9565b915061356f60208601612991565b825261357d60408601611e28565b602083015261358e6060860161226e565b604083015261359f6080860161226e565b60608301526135b060a0860161226e565b60808301526135c160c086016134fc565b60a08301526135d260e08601611eca565b60c08301526101006135e5818701611eca565b60e08401526101206135f8818801611eca565b82850152610140915061360c82880161226e565b9084015261016061361e878201611eca565b828501526101809150613632828801611eca565b908401526101a0613644878201611eca565b828501526101c09150613658828801611eca565b908401526101e061366a878201611eca565b82850152610200915061367e828801612085565b9084015261022061369087820161226e565b8285015261024091506136a482880161226e565b908401526102606136b6878201611eca565b8285015261028091506136ca828801611eca565b908401526102a06136dc878201611eca565b828501526102c091506136f0828801612085565b908401526136ff868301611e05565b9083015250919491935090915050565b5f805f805f8060c08789031215613724575f80fd5b61372d87611e05565b955061373b6020880161206c565b945061374960408801611e28565b9350606087013567ffffffffffffffff80821115613765575f80fd5b6137718a838b0161284f565b94506080890135915080821115613786575f80fd5b5061379389828a0161275b565b9250506137a260a0880161226e565b90509295509295509295565b5f805f606084860312156137c0575f80fd5b6137c984611e05565b92506137d760208501611e05565b9150611e7960408501611eca565b61018081016117458284612cde565b5f805f8060808587031215613807575f80fd5b61381085611e05565b935061381e60208601611e05565b925061301f60408601611eca565b5f606080830181845280875180835260808601915060808160051b87010192506020808a015f5b838110156138d4578886037fffffffffffffffffffffffffffffffffffffffffffffffffffffffffffffff800185528151805173ffffffffffffffffffffffffffffffffffffffff1687528381015160ff16848801526040908101519087018890526138c188880182612ebd565b9650509382019390820190600101613853565b505073ffffffffffffffffffffffffffffffffffffffff89169087015250508381036040850152612c40818661332e565b604080825283518282018190525f91906020906060850190828801855b82811015613960578151805173ffffffffffffffffffffffffffffffffffffffff16855285015160ff16858501529285019290840190600101613922565b505050941515930192909252509092915050565b602080825282518282018190525f9190848201906040850190845b81811015612bac57835160ff168352928401929184019160010161398f56fea2646970667358221220d3757499fe3264346a9af7b7f552a77d61c65dc7bd16f2b6db53332acbcf431f64736f6c63430008150033","linkReferences":{}},"methodIdentifiers":{"_cancelAsk(address,uint16)":"ae18d6ce","_cancelShort(address,uint16)":"bc47cc08","admin()":"f851a440","approve(address,uint256)":"095ea7b3","balanceOf(address)":"70a08231","cancelAsk(address,uint16)":"e2c068db","cancelBid(address,uint16)":"36cee7b9","cancelOrderFarFromOracle(address,uint8,uint16,uint16)":"9421590b","cancelShort(address,uint16)":"2af639cd","claimDittoMatchedReward(uint256)":"ce3d77f7","claimOwnership()":"4e71e0c8","combineShorts(address,uint8[])":"ce645d41","createAsk(address,uint80,uint88,bool,(uint16,uint256)[])":"d53f44b1","createBid(address,uint80,uint88,bool,(uint16,uint256)[],uint16[])":"2ba8c920","createBridge(address,uint256,uint16,uint8)":"b9bf5bf6","createForcedBid(address,address,uint80,uint88,uint16[])":"269010c5","createLimitShort(address,uint80,uint88,(uint16,uint256)[],uint16[],uint16)":"f23811cc","createMarket(address,(uint104,uint88,uint16,uint16,uint16,uint8,uint8,uint8,uint8,uint16,uint8,uint8,uint8,uint8,uint8,uint64,uint16,uint16,uint8,uint8,uint8,uint64,address))":"ee9a237f","createVault(address,uint256,(uint16,uint16,uint16))":"3ba254f1","decreaseCollateral(address,uint8,uint88)":"f1562f12","deposit(address,uint88)":"b22b4c87","depositAsset(address,uint104)":"fc8b8d6b","depositEth(address)":"ad9d4ba3","diamondCut((address,uint8,bytes4[])[],address,bytes)":"1f931c1c","distributeYield(address[])":"539baa73","estimateWETHInUSDC(uint128,uint32)":"0b545214","exitShort(address,uint8,uint88,uint80,uint16[])":"d88ee0dc","exitShortErcEscrowed(address,uint8,uint88)":"8421b931","exitShortWallet(address,uint8,uint88)":"ccf0850e","facetAddress(bytes4)":"cdffacc6","facetAddresses()":"52ef6b2c","facetFunctionSelectors(address)":"adfca15e","facets()":"7a0ed627","flagShort(address,address,uint8,uint16)":"ff859c95","getApproved(uint256)":"081812fc","getAskHintId(address,uint256)":"ec70a2f8","getAsks(address)":"f0ac360b","getAssetBalance(address,address)":"7e89334f","getAssetCollateralRatio(address)":"2ee19f6a","getAssetStruct(address)":"24ddaf90","getAssetUserStruct(address,address)":"d1668385","getBidHintId(address,uint256)":"8d2bd5cd","getBids(address)":"9dccae82","getBridgeStruct(address)":"fb5c0a59","getBridgeVault(address)":"4c87276e","getBridges(uint256)":"6b23cb93","getCollateralRatio(address,(uint88,uint88,uint80,uint8,uint8,uint8,uint8,uint64,uint32,uint32,uint24,uint40))":"8e16e161","getCollateralRatioSpotPrice(address,(uint88,uint88,uint80,uint8,uint8,uint8,uint8,uint64,uint32,uint32,uint24,uint40))":"08186cb0","getDethBalance(uint256,address)":"07ca4c70","getDethTotal(uint256)":"e9468051","getDethYieldRate(uint256)":"12779fcd","getDittoMatchedReward(uint256,address)":"b4a9a0de","getDittoReward(uint256,address)":"53105b4d","getFlaggerHint()":"3f32ac37","getFlaggerId(address,address)":"85871317","getHintArray(address,uint256,uint8,uint256)":"58ec7987","getOffsetTime()":"d7516a90","getOracleAssetPrice(address)":"7db6eec9","getProtocolAssetPrice(address)":"254c5272","getProtocolAssetTime(address)":"e9a2269b","getShortHintId(address,uint256)":"258119b3","getShortIdAtOracle(address)":"024ef0dd","getShortRecord(address,address,uint8)":"f24f250b","getShortRecordCount(address,address)":"c1cf2e30","getShortRecords(address,address)":"5681e389","getShorts(address)":"bd6b8f01","getTithe(uint256)":"ef9bdfdb","getUndistributedYield(uint256)":"c09b0d20","getVault(address)":"0eb9af38","getVaultStruct(uint256)":"973cfb41","getVaultUserStruct(uint256,address)":"5cb1be99","getYield(address,address)":"5a61aa1d","increaseCollateral(address,uint8,uint88)":"804c24d8","isApprovedForAll(address,address)":"e985e9c5","liquidate(address,address,uint8,uint16[])":"564305d3","liquidateSecondary(address,(address,uint8)[],uint88,bool)":"493a314f","mintNFT(address,uint8)":"2ca47c6d","owner()":"8da5cb5b","ownerCandidate()":"5f504a82","ownerOf(uint256)":"6352211e","redeemErc(address,uint88,uint88)":"005b6317","safeTransferFrom(address,address,uint256)":"42842e0e","safeTransferFrom(address,address,uint256,bytes)":"b88d4fde","setApprovalForAll(address,bool)":"a22cb465","setCallerFeePct(address,uint8)":"54ea9f35","setDittoMatchedRate(uint256,uint16)":"cbee05bf","setDittoShorterRate(uint256,uint16)":"f62f3705","setFirstLiquidationTime(address,uint8)":"02017011","setForcedBidPriceBuffer(address,uint8)":"6f864baf","setInitialCR(address,uint16)":"0c381986","setMinAskEth(address,uint8)":"28a08f1c","setMinBidEth(address,uint8)":"920ed6f4","setMinShortErc(address,uint16)":"31f1f149","setMinimumCR(address,uint8)":"f2031859","setPrimaryLiquidationCR(address,uint16)":"9d54ce78","setResetLiquidationTime(address,uint8)":"b7b77003","setSecondLiquidationTime(address,uint8)":"44a8aa98","setSecondaryLiquidationCR(address,uint16)":"350e0b3c","setTappFeePct(address,uint8)":"03bf6bec","setTithe(uint256,uint16)":"3824d852","setWithdrawalFee(address,uint16)":"6301727b","shutdownMarket(address)":"2bf34f79","supportsInterface(bytes4)":"01ffc9a7","tokenURI(uint256)":"c87b56dd","transferAdminship(address)":"5be7cc16","transferFrom(address,address,uint256)":"23b872dd","transferOwnership(address)":"f2fde38b","updateYield(uint256)":"2e9a1de1","withdraw(address,uint88)":"1798cd0e","withdrawAsset(address,uint104)":"3adc16fc","withdrawDittoReward(uint256)":"93d7a51e","withdrawTapp(address,uint88)":"cf254251"},"id":1}