{
  "abi": [
    {
      "type": "constructor",
      "inputs": [
        {
          "name": "_deth",
          "type": "address",
          "internalType": "address"
        }
      ],
      "stateMutability": "nonpayable"
    },
    {
      "type": "function",
      "name": "depositAsset",
      "inputs": [
        {
          "name": "asset",
          "type": "address",
          "internalType": "address"
        },
        {
          "name": "amount",
          "type": "uint104",
          "internalType": "uint104"
        }
      ],
      "outputs": [],
      "stateMutability": "nonpayable"
    },
    {
      "type": "function",
      "name": "withdrawAsset",
      "inputs": [
        {
          "name": "asset",
          "type": "address",
          "internalType": "address"
        },
        {
          "name": "amount",
          "type": "uint104",
          "internalType": "uint104"
        }
      ],
      "outputs": [],
      "stateMutability": "nonpayable"
    },
    {
      "type": "error",
      "name": "AssetIsFrozen",
      "inputs": []
    },
    {
      "type": "error",
      "name": "InsufficientERCEscrowed",
      "inputs": []
    },
    {
      "type": "error",
      "name": "InvalidAsset",
      "inputs": []
    },
    {
      "type": "error",
      "name": "PriceOrAmountIs0",
      "inputs": []
    },
    {
      "type": "error",
      "name": "ReentrantCall",
      "inputs": []
    }
  ],
  "bytecode": {
    "object": "0x60a060405234801561000f575f80fd5b506040516108c83803806108c883398101604081905261002e9161003f565b6001600160a01b031660805261006c565b5f6020828403121561004f575f80fd5b81516001600160a01b0381168114610065575f80fd5b9392505050565b6080516108476100815f395f50506108475ff3fe608060405234801561000f575f80fd5b5060043610610034575f3560e01c80633adc16fc14610038578063fc8b8d6b1461004d575b5f80fd5b61004b610046366004610704565b610060565b005b61004b61005b366004610704565b610389565b73ffffffffffffffffffffffffffffffffffffffff82165f9081526008602052604081205483917f010000000000000000000000000000000000000000000000000000000000000090910460ff1690036100e6576040517fc891add200000000000000000000000000000000000000000000000000000000815260040160405180910390fd5b6002547ffffffffffffffffffffffffffffffffffffffffffffffffffffffffffffffffe7c010000000000000000000000000000000000000000000000000000000090910460ff1601610165576040517f37ed32e800000000000000000000000000000000000000000000000000000000815260040160405180910390fd5b600280547fffffff00ffffffffffffffffffffffffffffffffffffffffffffffffffffffff167c02000000000000000000000000000000000000000000000000000000001790556cffffffffffffffffffffffffff82165f036101f4576040517fe5c30f3900000000000000000000000000000000000000000000000000000000815260040160405180910390fd5b73ffffffffffffffffffffffffffffffffffffffff83165f908152600960209081526040808320338452909152902080546cffffffffffffffffffffffffff9081169084161115610271576040517f4bf8161700000000000000000000000000000000000000000000000000000000815260040160405180910390fd5b8054839082905f906102939084906cffffffffffffffffffffffffff16610791565b82546101009290920a6cffffffffffffffffffffffffff8181021990931691831602179091556040517f40c10f19000000000000000000000000000000000000000000000000000000008152336004820152908516602482015273ffffffffffffffffffffffffffffffffffffffff861691506340c10f19906044015f604051808303815f87803b158015610326575f80fd5b505af1158015610338573d5f803e3d5ffd5b5050600280547fffffff00ffffffffffffffffffffffffffffffffffffffffffffffffffffffff167c0100000000000000000000000000000000000000000000000000000000179055505050505050565b73ffffffffffffffffffffffffffffffffffffffff82165f9081526008602052604081205483917f010000000000000000000000000000000000000000000000000000000000000090910460ff16900361040f576040517fc891add200000000000000000000000000000000000000000000000000000000815260040160405180910390fd5b825f73ffffffffffffffffffffffffffffffffffffffff82165f908152600860205260409020547e01000000000000000000000000000000000000000000000000000000000000900460ff16600181111561046c5761046c6107be565b146104a3576040517f0e27a3f700000000000000000000000000000000000000000000000000000000815260040160405180910390fd5b6002547ffffffffffffffffffffffffffffffffffffffffffffffffffffffffffffffffe7c010000000000000000000000000000000000000000000000000000000090910460ff1601610522576040517f37ed32e800000000000000000000000000000000000000000000000000000000815260040160405180910390fd5b600280547fffffff00ffffffffffffffffffffffffffffffffffffffffffffffffffffffff167c02000000000000000000000000000000000000000000000000000000001790556cffffffffffffffffffffffffff83165f036105b1576040517fe5c30f3900000000000000000000000000000000000000000000000000000000815260040160405180910390fd5b6040517f79cc67900000000000000000000000000000000000000000000000000000000081523360048201526cffffffffffffffffffffffffff8416602482015273ffffffffffffffffffffffffffffffffffffffff8516906379cc6790906044015f604051808303815f87803b15801561062a575f80fd5b505af115801561063c573d5f803e3d5ffd5b5050505073ffffffffffffffffffffffffffffffffffffffff84165f9081526009602090815260408083203384529091528120805485929061068e9084906cffffffffffffffffffffffffff166107eb565b82546cffffffffffffffffffffffffff9182166101009390930a92830291909202199091161790555050600280547fffffff00ffffffffffffffffffffffffffffffffffffffffffffffffffffffff167c0100000000000000000000000000000000000000000000000000000000179055505050565b5f8060408385031215610715575f80fd5b823573ffffffffffffffffffffffffffffffffffffffff81168114610738575f80fd5b915060208301356cffffffffffffffffffffffffff81168114610759575f80fd5b809150509250929050565b7f4e487b71000000000000000000000000000000000000000000000000000000005f52601160045260245ffd5b6cffffffffffffffffffffffffff8281168282160390808211156107b7576107b7610764565b5092915050565b7f4e487b71000000000000000000000000000000000000000000000000000000005f52602160045260245ffd5b6cffffffffffffffffffffffffff8181168382160190808211156107b7576107b761076456fea26469706673582212200997db9684c965062bf4d21474c3e11389edd09689ee9d24137c61a9bbb572ac64736f6c63430008150033",
    "linkReferences": {}
  },
  "methodIdentifiers": {
    "depositAsset(address,uint104)": "fc8b8d6b",
    "withdrawAsset(address,uint104)": "3adc16fc"
  },
  "id": 19
}